{
  "contractName": "RealEstate",
  "abi": [
    {
      "inputs": [
        {
          "internalType": "uint256",
          "name": "properties",
          "type": "uint256"
        }
      ],
      "stateMutability": "nonpayable",
      "type": "constructor"
    },
    {
      "anonymous": false,
      "inputs": [
        {
          "indexed": true,
          "internalType": "address",
          "name": "owner",
          "type": "address"
        },
        {
          "indexed": true,
          "internalType": "address",
          "name": "spender",
          "type": "address"
        },
        {
          "indexed": false,
          "internalType": "uint256",
          "name": "value",
          "type": "uint256"
        }
      ],
      "name": "Approval",
      "type": "event"
    },
    {
      "anonymous": false,
      "inputs": [
        {
          "indexed": false,
          "internalType": "uint256",
          "name": "id",
          "type": "uint256"
        },
        {
          "indexed": false,
          "internalType": "address",
          "name": "from",
          "type": "address"
        },
        {
          "indexed": false,
          "internalType": "address",
          "name": "to",
          "type": "address"
        },
        {
          "indexed": false,
          "internalType": "uint256",
          "name": "price",
          "type": "uint256"
        }
      ],
      "name": "BuyEvent",
      "type": "event"
    },
    {
      "anonymous": false,
      "inputs": [
        {
          "indexed": false,
          "internalType": "uint256",
          "name": "id",
          "type": "uint256"
        },
        {
          "indexed": false,
          "internalType": "address",
          "name": "tenant",
          "type": "address"
        },
        {
          "indexed": false,
          "internalType": "address",
          "name": "owner",
          "type": "address"
        }
      ],
      "name": "DeRentEvent",
      "type": "event"
    },
    {
      "anonymous": false,
      "inputs": [
        {
          "indexed": false,
          "internalType": "uint256",
          "name": "id",
          "type": "uint256"
        },
        {
          "indexed": false,
          "internalType": "address",
          "name": "tenant",
          "type": "address"
        },
        {
          "indexed": false,
          "internalType": "address",
          "name": "owner",
          "type": "address"
        },
        {
          "indexed": false,
          "internalType": "uint256",
          "name": "rent",
          "type": "uint256"
        }
      ],
      "name": "PayRentEvent",
      "type": "event"
    },
    {
      "anonymous": false,
      "inputs": [
        {
          "indexed": false,
          "internalType": "uint256",
          "name": "id",
          "type": "uint256"
        },
        {
          "indexed": false,
          "internalType": "address",
          "name": "owner",
          "type": "address"
        }
      ],
      "name": "PostEvent",
      "type": "event"
    },
    {
      "anonymous": false,
      "inputs": [
        {
          "indexed": false,
          "internalType": "uint256",
          "name": "id",
          "type": "uint256"
        },
        {
          "indexed": false,
          "internalType": "address",
          "name": "owner",
          "type": "address"
        },
        {
          "indexed": false,
          "internalType": "uint256",
          "name": "price",
          "type": "uint256"
        },
        {
          "indexed": false,
          "internalType": "uint256",
          "name": "balance",
          "type": "uint256"
        },
        {
          "indexed": false,
          "internalType": "bool",
          "name": "onSale",
          "type": "bool"
        }
      ],
      "name": "PropertyCreated",
      "type": "event"
    },
    {
      "anonymous": false,
      "inputs": [
        {
          "indexed": false,
          "internalType": "uint256",
          "name": "id",
          "type": "uint256"
        },
        {
          "indexed": false,
          "internalType": "address",
          "name": "tenat",
          "type": "address"
        },
        {
          "indexed": false,
          "internalType": "address",
          "name": "owner",
          "type": "address"
        },
        {
          "indexed": false,
          "internalType": "uint256",
          "name": "percent",
          "type": "uint256"
        },
        {
          "indexed": false,
          "internalType": "uint256",
          "name": "time",
          "type": "uint256"
        }
      ],
      "name": "RentEvent",
      "type": "event"
    },
    {
      "anonymous": false,
      "inputs": [
        {
          "indexed": false,
          "internalType": "uint256",
          "name": "id",
          "type": "uint256"
        },
        {
          "indexed": false,
          "internalType": "address",
          "name": "tenant",
          "type": "address"
        },
        {
          "indexed": false,
          "internalType": "address",
          "name": "owner",
          "type": "address"
        }
      ],
      "name": "ThrowTenantEvent",
      "type": "event"
    },
    {
      "anonymous": false,
      "inputs": [
        {
          "indexed": true,
          "internalType": "address",
          "name": "from",
          "type": "address"
        },
        {
          "indexed": true,
          "internalType": "address",
          "name": "to",
          "type": "address"
        },
        {
          "indexed": false,
          "internalType": "uint256",
          "name": "value",
          "type": "uint256"
        }
      ],
      "name": "Transfer",
      "type": "event"
    },
    {
      "inputs": [
        {
          "internalType": "address",
          "name": "owner",
          "type": "address"
        },
        {
          "internalType": "address",
          "name": "spender",
          "type": "address"
        }
      ],
      "name": "allowance",
      "outputs": [
        {
          "internalType": "uint256",
          "name": "",
          "type": "uint256"
        }
      ],
      "stateMutability": "view",
      "type": "function",
      "constant": true
    },
    {
      "inputs": [
        {
          "internalType": "address",
          "name": "spender",
          "type": "address"
        },
        {
          "internalType": "uint256",
          "name": "amount",
          "type": "uint256"
        }
      ],
      "name": "approve",
      "outputs": [
        {
          "internalType": "bool",
          "name": "",
          "type": "bool"
        }
      ],
      "stateMutability": "nonpayable",
      "type": "function"
    },
    {
      "inputs": [
        {
          "internalType": "address",
          "name": "account",
          "type": "address"
        }
      ],
      "name": "balanceOf",
      "outputs": [
        {
          "internalType": "uint256",
          "name": "",
          "type": "uint256"
        }
      ],
      "stateMutability": "view",
      "type": "function",
      "constant": true
    },
    {
      "inputs": [],
      "name": "decimals",
      "outputs": [
        {
          "internalType": "uint8",
          "name": "",
          "type": "uint8"
        }
      ],
      "stateMutability": "view",
      "type": "function",
      "constant": true
    },
    {
      "inputs": [
        {
          "internalType": "address",
          "name": "spender",
          "type": "address"
        },
        {
          "internalType": "uint256",
          "name": "subtractedValue",
          "type": "uint256"
        }
      ],
      "name": "decreaseAllowance",
      "outputs": [
        {
          "internalType": "bool",
          "name": "",
          "type": "bool"
        }
      ],
      "stateMutability": "nonpayable",
      "type": "function"
    },
    {
      "inputs": [
        {
          "internalType": "address",
          "name": "spender",
          "type": "address"
        },
        {
          "internalType": "uint256",
          "name": "addedValue",
          "type": "uint256"
        }
      ],
      "name": "increaseAllowance",
      "outputs": [
        {
          "internalType": "bool",
          "name": "",
          "type": "bool"
        }
      ],
      "stateMutability": "nonpayable",
      "type": "function"
    },
    {
      "inputs": [],
      "name": "name",
      "outputs": [
        {
          "internalType": "string",
          "name": "",
          "type": "string"
        }
      ],
      "stateMutability": "view",
      "type": "function",
      "constant": true
    },
    {
      "inputs": [],
      "name": "symbol",
      "outputs": [
        {
          "internalType": "string",
          "name": "",
          "type": "string"
        }
      ],
      "stateMutability": "view",
      "type": "function",
      "constant": true
    },
    {
      "inputs": [],
      "name": "totalSupply",
      "outputs": [
        {
          "internalType": "uint256",
          "name": "",
          "type": "uint256"
        }
      ],
      "stateMutability": "view",
      "type": "function",
      "constant": true
    },
    {
      "inputs": [
        {
          "internalType": "address",
          "name": "to",
          "type": "address"
        },
        {
          "internalType": "uint256",
          "name": "amount",
          "type": "uint256"
        }
      ],
      "name": "transfer",
      "outputs": [
        {
          "internalType": "bool",
          "name": "",
          "type": "bool"
        }
      ],
      "stateMutability": "nonpayable",
      "type": "function"
    },
    {
      "inputs": [
        {
          "internalType": "address",
          "name": "from",
          "type": "address"
        },
        {
          "internalType": "address",
          "name": "to",
          "type": "address"
        },
        {
          "internalType": "uint256",
          "name": "amount",
          "type": "uint256"
        }
      ],
      "name": "transferFrom",
      "outputs": [
        {
          "internalType": "bool",
          "name": "",
          "type": "bool"
        }
      ],
      "stateMutability": "nonpayable",
      "type": "function"
    },
    {
      "inputs": [
        {
          "internalType": "uint256",
          "name": "id",
          "type": "uint256"
        }
      ],
      "name": "buy",
      "outputs": [],
      "stateMutability": "payable",
      "type": "function",
      "payable": true
    },
    {
      "inputs": [
        {
          "internalType": "uint256",
          "name": "id",
          "type": "uint256"
        },
        {
          "internalType": "uint256",
          "name": "percent",
          "type": "uint256"
        }
      ],
      "name": "rent",
      "outputs": [],
      "stateMutability": "payable",
      "type": "function",
      "payable": true
    },
    {
      "inputs": [
        {
          "internalType": "uint256",
          "name": "id",
          "type": "uint256"
        }
      ],
      "name": "de_rent",
      "outputs": [],
      "stateMutability": "nonpayable",
      "type": "function"
    },
    {
      "inputs": [
        {
          "internalType": "uint256",
          "name": "id",
          "type": "uint256"
        }
      ],
      "name": "pay_rent",
      "outputs": [],
      "stateMutability": "payable",
      "type": "function",
      "payable": true
    },
    {
      "inputs": [
        {
          "internalType": "uint256",
          "name": "id",
          "type": "uint256"
        },
        {
          "internalType": "address",
          "name": "tenant",
          "type": "address"
        }
      ],
      "name": "throw_faulty_tenant",
      "outputs": [],
      "stateMutability": "nonpayable",
      "type": "function"
    },
    {
      "inputs": [
        {
          "internalType": "uint256",
          "name": "id",
          "type": "uint256"
        }
      ],
      "name": "postProperty",
      "outputs": [],
      "stateMutability": "nonpayable",
      "type": "function"
    }
  ],
  "bytecode": "0x60806040523480156200001157600080fd5b5060405162003b5d38038062003b5d833981810160405281019062000037919062000547565b6040518060400160405280600881526020017f50726f70657274790000000000000000000000000000000000000000000000008152506040518060400160405280600381526020017f50505400000000000000000000000000000000000000000000000000000000008152508160039080519060200190620000bb92919062000480565b508060049080519060200190620000d492919062000480565b50505060005b81811015620002ad57600060405180608001604052808381526020013373ffffffffffffffffffffffffffffffffffffffff168152602001600a60018562000123919062000695565b6200012f9190620006f2565b815260200160001515815250905080600760008481526020019081526020016000206000820151816000015560208201518160010160006101000a81548173ffffffffffffffffffffffffffffffffffffffff021916908373ffffffffffffffffffffffffffffffffffffffff1602179055506040820151816002015560608201518160030160006101000a81548160ff021916908315150217905550905050620001e233600a620002b560201b60201c565b600a600560003373ffffffffffffffffffffffffffffffffffffffff1673ffffffffffffffffffffffffffffffffffffffff1681526020019081526020016000206000848152602001908152602001600020819055507f5ed1c6df55d3687f5875210a49134a0e8ae2c095dd4c8a11ecc183b57956681681600001518260200151836040015162000279336200042e60201b60201c565b60006040516200028e95949392919062000627565b60405180910390a1508080620002a490620007d3565b915050620000da565b505062000899565b600073ffffffffffffffffffffffffffffffffffffffff168273ffffffffffffffffffffffffffffffffffffffff16141562000328576040517f08c379a00000000000000000000000000000000000000000000000000000000081526004016200031f90620005e8565b60405180910390fd5b6200033c600083836200047660201b60201c565b806002600082825462000350919062000695565b92505081905550806000808473ffffffffffffffffffffffffffffffffffffffff1673ffffffffffffffffffffffffffffffffffffffff1681526020019081526020016000206000828254620003a7919062000695565b925050819055508173ffffffffffffffffffffffffffffffffffffffff16600073ffffffffffffffffffffffffffffffffffffffff167fddf252ad1be2c89b69c2b068fc378daa952ba7f163c4a11628f55a4df523b3ef836040516200040e91906200060a565b60405180910390a36200042a600083836200047b60201b60201c565b5050565b60008060008373ffffffffffffffffffffffffffffffffffffffff1673ffffffffffffffffffffffffffffffffffffffff168152602001908152602001600020549050919050565b505050565b505050565b8280546200048e906200079d565b90600052602060002090601f016020900481019282620004b25760008555620004fe565b82601f10620004cd57805160ff1916838001178555620004fe565b82800160010185558215620004fe579182015b82811115620004fd578251825591602001919060010190620004e0565b5b5090506200050d919062000511565b5090565b5b808211156200052c57600081600090555060010162000512565b5090565b60008151905062000541816200087f565b92915050565b6000602082840312156200055a57600080fd5b60006200056a8482850162000530565b91505092915050565b6200057e8162000753565b82525050565b6200058f8162000767565b82525050565b6000620005a4601f8362000684565b91507f45524332303a206d696e7420746f20746865207a65726f2061646472657373006000830152602082019050919050565b620005e28162000793565b82525050565b60006020820190508181036000830152620006038162000595565b9050919050565b6000602082019050620006216000830184620005d7565b92915050565b600060a0820190506200063e6000830188620005d7565b6200064d602083018762000573565b6200065c6040830186620005d7565b6200066b6060830185620005d7565b6200067a608083018462000584565b9695505050505050565b600082825260208201905092915050565b6000620006a28262000793565b9150620006af8362000793565b9250827fffffffffffffffffffffffffffffffffffffffffffffffffffffffffffffffff03821115620006e757620006e662000821565b5b828201905092915050565b6000620006ff8262000793565b91506200070c8362000793565b9250817fffffffffffffffffffffffffffffffffffffffffffffffffffffffffffffffff048311821515161562000748576200074762000821565b5b828202905092915050565b6000620007608262000773565b9050919050565b60008115159050919050565b600073ffffffffffffffffffffffffffffffffffffffff82169050919050565b6000819050919050565b60006002820490506001821680620007b657607f821691505b60208210811415620007cd57620007cc62000850565b5b50919050565b6000620007e08262000793565b91507fffffffffffffffffffffffffffffffffffffffffffffffffffffffffffffffff82141562000816576200081562000821565b5b600182019050919050565b7f4e487b7100000000000000000000000000000000000000000000000000000000600052601160045260246000fd5b7f4e487b7100000000000000000000000000000000000000000000000000000000600052602260045260246000fd5b6200088a8162000793565b81146200089657600080fd5b50565b6132b480620008a96000396000f3fe6080604052600436106100fe5760003560e01c8063499b9bfb11610095578063a457c2d711610064578063a457c2d71461032d578063a9059cbb1461036a578063d96a094a146103a7578063dd62ed3e146103c3578063f6cdde1114610400576100fe565b8063499b9bfb1461028d57806370a08231146102a9578063783a112b146102e657806395d89b4114610302576100fe565b806323b872dd116100d157806323b872dd146101bf578063313ce567146101fc578063341fd4d9146102275780633950935114610250576100fe565b806306f9e9541461010357806306fdde031461012c578063095ea7b31461015757806318160ddd14610194575b600080fd5b34801561010f57600080fd5b5061012a60048036038101906101259190612257565b610429565b005b34801561013857600080fd5b506101416107b0565b60405161014e9190612b1c565b60405180910390f35b34801561016357600080fd5b5061017e600480360381019061017991906121f2565b610842565b60405161018b9190612b01565b60405180910390f35b3480156101a057600080fd5b506101a9610865565b6040516101b69190612e1e565b60405180910390f35b3480156101cb57600080fd5b506101e660048036038101906101e191906121a3565b61086f565b6040516101f39190612b01565b60405180910390f35b34801561020857600080fd5b5061021161089e565b60405161021e9190612f76565b60405180910390f35b34801561023357600080fd5b5061024e6004803603810190610249919061222e565b6108a7565b005b34801561025c57600080fd5b50610277600480360381019061027291906121f2565b610a26565b6040516102849190612b01565b60405180910390f35b6102a760048036038101906102a2919061222e565b610a5d565b005b3480156102b557600080fd5b506102d060048036038101906102cb919061213e565b610e82565b6040516102dd9190612e1e565b60405180910390f35b61030060048036038101906102fb9190612293565b610eca565b005b34801561030e57600080fd5b50610317611347565b6040516103249190612b1c565b60405180910390f35b34801561033957600080fd5b50610354600480360381019061034f91906121f2565b6113d9565b6040516103619190612b01565b60405180910390f35b34801561037657600080fd5b50610391600480360381019061038c91906121f2565b611450565b60405161039e9190612b01565b60405180910390f35b6103c160048036038101906103bc919061222e565b611473565b005b3480156103cf57600080fd5b506103ea60048036038101906103e59190612167565b61182d565b6040516103f79190612e1e565b60405180910390f35b34801561040c57600080fd5b506104276004803603810190610422919061222e565b6118b4565b005b60006007600084815260200190815260200160002090503373ffffffffffffffffffffffffffffffffffffffff168160010160009054906101000a900473ffffffffffffffffffffffffffffffffffffffff1673ffffffffffffffffffffffffffffffffffffffff16146104d2576040517f08c379a00000000000000000000000000000000000000000000000000000000081526004016104c990612bfe565b60405180910390fd5b6000600660008473ffffffffffffffffffffffffffffffffffffffff1673ffffffffffffffffffffffffffffffffffffffff16815260200190815260200160002060008581526020019081526020016000205442610530919061308e565b90506001811015610576576040517f08c379a000000000000000000000000000000000000000000000000000000000815260040161056d90612b9e565b60405180910390fd5b6000600560008573ffffffffffffffffffffffffffffffffffffffff1673ffffffffffffffffffffffffffffffffffffffff16815260200190815260200160002060008681526020019081526020016000205411610609576040517f08c379a000000000000000000000000000000000000000000000000000000000815260040161060090612dde565b60405180910390fd5b6000600560008573ffffffffffffffffffffffffffffffffffffffff1673ffffffffffffffffffffffffffffffffffffffff168152602001908152602001600020600086815260200190815260200160002054905061068d848460010160009054906101000a900473ffffffffffffffffffffffffffffffffffffffff1683611c2a565b6000600560008673ffffffffffffffffffffffffffffffffffffffff1673ffffffffffffffffffffffffffffffffffffffff16815260200190815260200160002060008781526020019081526020016000208190555080600560008560010160009054906101000a900473ffffffffffffffffffffffffffffffffffffffff1673ffffffffffffffffffffffffffffffffffffffff1673ffffffffffffffffffffffffffffffffffffffff168152602001908152602001600020600087815260200190815260200160002060008282546107679190612fad565b925050819055507fc3e6fc2ad655a6b8a8526beef12aec3feec8ead853e6f32732051a40f9b0ebe68585336040516107a193929190612ea7565b60405180910390a15050505050565b6060600380546107bf90613180565b80601f01602080910402602001604051908101604052809291908181526020018280546107eb90613180565b80156108385780601f1061080d57610100808354040283529160200191610838565b820191906000526020600020905b81548152906001019060200180831161081b57829003601f168201915b5050505050905090565b60008061084d611eab565b905061085a818585611eb3565b600191505092915050565b6000600254905090565b60008061087a611eab565b905061088785828561207e565b610892858585611c2a565b60019150509392505050565b60006012905090565b60006007600083815260200190815260200160002090503373ffffffffffffffffffffffffffffffffffffffff168160010160009054906101000a900473ffffffffffffffffffffffffffffffffffffffff1673ffffffffffffffffffffffffffffffffffffffff1614610950576040517f08c379a000000000000000000000000000000000000000000000000000000000815260040161094790612c5e565b60405180910390fd5b600015158160030160009054906101000a900460ff161515146109a8576040517f08c379a000000000000000000000000000000000000000000000000000000000815260040161099f90612dbe565b60405180910390fd5b60018160030160006101000a81548160ff0219169083151502179055507f16107c162de5eddaa0d10676c2fecf22b97f5005218305a80dca0531e4b8322c828260010160009054906101000a900473ffffffffffffffffffffffffffffffffffffffff16604051610a1a929190612e39565b60405180910390a15050565b600080610a31611eab565b9050610a52818585610a43858961182d565b610a4d9190612fad565b611eb3565b600191505092915050565b8060006007600083815260200190815260200160002090508060010160009054906101000a900473ffffffffffffffffffffffffffffffffffffffff1673ffffffffffffffffffffffffffffffffffffffff163373ffffffffffffffffffffffffffffffffffffffff161415610b08576040517f08c379a0000000000000000000000000000000000000000000000000000000008152600401610aff90612c1e565b60405180910390fd5b60006007600085815260200190815260200160002090506000600560003373ffffffffffffffffffffffffffffffffffffffff1673ffffffffffffffffffffffffffffffffffffffff16815260200190815260200160002060008681526020019081526020016000205411610bb2576040517f08c379a0000000000000000000000000000000000000000000000000000000008152600401610ba990612bde565b60405180910390fd5b6000600660003373ffffffffffffffffffffffffffffffffffffffff1673ffffffffffffffffffffffffffffffffffffffff16815260200190815260200160002060008681526020019081526020016000205442610c10919061308e565b90506001811015610c56576040517f08c379a0000000000000000000000000000000000000000000000000000000008152600401610c4d90612cde565b60405180910390fd5b6000600a8360020154610c699190613003565b600560003373ffffffffffffffffffffffffffffffffffffffff1673ffffffffffffffffffffffffffffffffffffffff168152602001908152602001600020600088815260200190815260200160002054610cc49190613034565b90508181610cd29190613034565b905060008111610d17576040517f08c379a0000000000000000000000000000000000000000000000000000000008152600401610d0e90612c7e565b60405180910390fd5b803414610d59576040517f08c379a0000000000000000000000000000000000000000000000000000000008152600401610d5090612c3e565b60405180910390fd5b8260010160009054906101000a900473ffffffffffffffffffffffffffffffffffffffff1673ffffffffffffffffffffffffffffffffffffffff166108fc349081150290604051600060405180830381858888f19350505050158015610dc3573d6000803e3d6000fd5b5042600660003373ffffffffffffffffffffffffffffffffffffffff1673ffffffffffffffffffffffffffffffffffffffff1681526020019081526020016000206000888152602001908152602001600020819055507f732c441310b0fe2a8d664d3e03726f9211a73cc57f823b32f73ae4815baef0bc86338560010160009054906101000a900473ffffffffffffffffffffffffffffffffffffffff1634604051610e729493929190612ede565b60405180910390a1505050505050565b60008060008373ffffffffffffffffffffffffffffffffffffffff1673ffffffffffffffffffffffffffffffffffffffff168152602001908152602001600020549050919050565b8160006007600083815260200190815260200160002090508060010160009054906101000a900473ffffffffffffffffffffffffffffffffffffffff1673ffffffffffffffffffffffffffffffffffffffff163373ffffffffffffffffffffffffffffffffffffffff161415610f75576040517f08c379a0000000000000000000000000000000000000000000000000000000008152600401610f6c90612c1e565b60405180910390fd5b6000600760008681526020019081526020016000209050600084118015610f9d5750600a8411155b610fdc576040517f08c379a0000000000000000000000000000000000000000000000000000000008152600401610fd390612c9e565b60405180910390fd5b600084905080600560008460010160009054906101000a900473ffffffffffffffffffffffffffffffffffffffff1673ffffffffffffffffffffffffffffffffffffffff1673ffffffffffffffffffffffffffffffffffffffff1681526020019081526020016000206000888152602001908152602001600020541015611098576040517f08c379a000000000000000000000000000000000000000000000000000000000815260040161108f90612d1e565b60405180910390fd5b6000600a83600201546110ab9190613003565b866110b69190613034565b90508034146110fa576040517f08c379a00000000000000000000000000000000000000000000000000000000081526004016110f190612cfe565b60405180910390fd5b6111298360010160009054906101000a900473ffffffffffffffffffffffffffffffffffffffff163384611c2a565b8260010160009054906101000a900473ffffffffffffffffffffffffffffffffffffffff1673ffffffffffffffffffffffffffffffffffffffff166108fc349081150290604051600060405180830381858888f19350505050158015611193573d6000803e3d6000fd5b5081600560008560010160009054906101000a900473ffffffffffffffffffffffffffffffffffffffff1673ffffffffffffffffffffffffffffffffffffffff1673ffffffffffffffffffffffffffffffffffffffff16815260200190815260200160002060008981526020019081526020016000206000828254611218919061308e565b9250508190555081600560003373ffffffffffffffffffffffffffffffffffffffff1673ffffffffffffffffffffffffffffffffffffffff1681526020019081526020016000206000898152602001908152602001600020600082825461127f9190612fad565b9250508190555042600660003373ffffffffffffffffffffffffffffffffffffffff1673ffffffffffffffffffffffffffffffffffffffff1681526020019081526020016000206000898152602001908152602001600020819055507f16ebaf9794746650ad87ea883c4222782aa356d79f5e1a15a75d87362fda852887338560010160009054906101000a900473ffffffffffffffffffffffffffffffffffffffff168942604051611336959493929190612f23565b60405180910390a150505050505050565b60606004805461135690613180565b80601f016020809104026020016040519081016040528092919081815260200182805461138290613180565b80156113cf5780601f106113a4576101008083540402835291602001916113cf565b820191906000526020600020905b8154815290600101906020018083116113b257829003601f168201915b5050505050905090565b6000806113e4611eab565b905060006113f2828661182d565b905083811015611437576040517f08c379a000000000000000000000000000000000000000000000000000000000815260040161142e90612dfe565b60405180910390fd5b6114448286868403611eb3565b60019250505092915050565b60008061145b611eab565b9050611468818585611c2a565b600191505092915050565b8060006007600083815260200190815260200160002090508060010160009054906101000a900473ffffffffffffffffffffffffffffffffffffffff1673ffffffffffffffffffffffffffffffffffffffff163373ffffffffffffffffffffffffffffffffffffffff16141561151e576040517f08c379a000000000000000000000000000000000000000000000000000000000815260040161151590612c1e565b60405180910390fd5b6000600760008581526020019081526020016000209050600115158160030160009054906101000a900460ff1615151461158d576040517f08c379a000000000000000000000000000000000000000000000000000000000815260040161158490612cbe565b60405180910390fd5b806002015434146115d3576040517f08c379a00000000000000000000000000000000000000000000000000000000081526004016115ca90612d5e565b60405180910390fd5b60008160010160009054906101000a900473ffffffffffffffffffffffffffffffffffffffff1690508073ffffffffffffffffffffffffffffffffffffffff166108fc349081150290604051600060405180830381858888f19350505050158015611642573d6000803e3d6000fd5b506000600560008373ffffffffffffffffffffffffffffffffffffffff1673ffffffffffffffffffffffffffffffffffffffff168152602001908152602001600020600087815260200190815260200160002054905080600560003373ffffffffffffffffffffffffffffffffffffffff1673ffffffffffffffffffffffffffffffffffffffff168152602001908152602001600020600088815260200190815260200160002060008282546116f89190612fad565b925050819055506000600560008473ffffffffffffffffffffffffffffffffffffffff1673ffffffffffffffffffffffffffffffffffffffff168152602001908152602001600020600088815260200190815260200160002081905550611760823383611c2a565b60008360030160006101000a81548160ff021916908315150217905550338360010160006101000a81548173ffffffffffffffffffffffffffffffffffffffff021916908373ffffffffffffffffffffffffffffffffffffffff1602179055507f4dbd8738e57e8d9c48fc1fa62ae57bc6b4d70f5adbcda17a1a915abd8a24992a86838560010160009054906101000a900473ffffffffffffffffffffffffffffffffffffffff16866002015460405161181d9493929190612e62565b60405180910390a1505050505050565b6000600160008473ffffffffffffffffffffffffffffffffffffffff1673ffffffffffffffffffffffffffffffffffffffff16815260200190815260200160002060008373ffffffffffffffffffffffffffffffffffffffff1673ffffffffffffffffffffffffffffffffffffffff16815260200190815260200160002054905092915050565b8060006007600083815260200190815260200160002090508060010160009054906101000a900473ffffffffffffffffffffffffffffffffffffffff1673ffffffffffffffffffffffffffffffffffffffff163373ffffffffffffffffffffffffffffffffffffffff16141561195f576040517f08c379a000000000000000000000000000000000000000000000000000000000815260040161195690612c1e565b60405180910390fd5b60006007600085815260200190815260200160002090506000600560003373ffffffffffffffffffffffffffffffffffffffff1673ffffffffffffffffffffffffffffffffffffffff16815260200190815260200160002060008681526020019081526020016000205411611a09576040517f08c379a0000000000000000000000000000000000000000000000000000000008152600401611a0090612d7e565b60405180910390fd5b6000600560003373ffffffffffffffffffffffffffffffffffffffff1673ffffffffffffffffffffffffffffffffffffffff1681526020019081526020016000206000868152602001908152602001600020549050611a8d338360010160009054906101000a900473ffffffffffffffffffffffffffffffffffffffff1683611c2a565b6000600560003373ffffffffffffffffffffffffffffffffffffffff1673ffffffffffffffffffffffffffffffffffffffff1681526020019081526020016000206000878152602001908152602001600020819055506000600660003373ffffffffffffffffffffffffffffffffffffffff1673ffffffffffffffffffffffffffffffffffffffff16815260200190815260200160002060008781526020019081526020016000208190555080600560008460010160009054906101000a900473ffffffffffffffffffffffffffffffffffffffff1673ffffffffffffffffffffffffffffffffffffffff1673ffffffffffffffffffffffffffffffffffffffff16815260200190815260200160002060008781526020019081526020016000206000828254611bbd9190612fad565b925050819055507f7ec58b6544e4a49695b4ce003db2c62d2e4cb9f6836aa978aeb6b4863112459585338460010160009054906101000a900473ffffffffffffffffffffffffffffffffffffffff16604051611c1b93929190612ea7565b60405180910390a15050505050565b600073ffffffffffffffffffffffffffffffffffffffff168373ffffffffffffffffffffffffffffffffffffffff161415611c9a576040517f08c379a0000000000000000000000000000000000000000000000000000000008152600401611c9190612d3e565b60405180910390fd5b600073ffffffffffffffffffffffffffffffffffffffff168273ffffffffffffffffffffffffffffffffffffffff161415611d0a576040517f08c379a0000000000000000000000000000000000000000000000000000000008152600401611d0190612b3e565b60405180910390fd5b611d1583838361210a565b60008060008573ffffffffffffffffffffffffffffffffffffffff1673ffffffffffffffffffffffffffffffffffffffff16815260200190815260200160002054905081811015611d9b576040517f08c379a0000000000000000000000000000000000000000000000000000000008152600401611d9290612bbe565b60405180910390fd5b8181036000808673ffffffffffffffffffffffffffffffffffffffff1673ffffffffffffffffffffffffffffffffffffffff16815260200190815260200160002081905550816000808573ffffffffffffffffffffffffffffffffffffffff1673ffffffffffffffffffffffffffffffffffffffff1681526020019081526020016000206000828254611e2e9190612fad565b925050819055508273ffffffffffffffffffffffffffffffffffffffff168473ffffffffffffffffffffffffffffffffffffffff167fddf252ad1be2c89b69c2b068fc378daa952ba7f163c4a11628f55a4df523b3ef84604051611e929190612e1e565b60405180910390a3611ea584848461210f565b50505050565b600033905090565b600073ffffffffffffffffffffffffffffffffffffffff168373ffffffffffffffffffffffffffffffffffffffff161415611f23576040517f08c379a0000000000000000000000000000000000000000000000000000000008152600401611f1a90612d9e565b60405180910390fd5b600073ffffffffffffffffffffffffffffffffffffffff168273ffffffffffffffffffffffffffffffffffffffff161415611f93576040517f08c379a0000000000000000000000000000000000000000000000000000000008152600401611f8a90612b5e565b60405180910390fd5b80600160008573ffffffffffffffffffffffffffffffffffffffff1673ffffffffffffffffffffffffffffffffffffffff16815260200190815260200160002060008473ffffffffffffffffffffffffffffffffffffffff1673ffffffffffffffffffffffffffffffffffffffff168152602001908152602001600020819055508173ffffffffffffffffffffffffffffffffffffffff168373ffffffffffffffffffffffffffffffffffffffff167f8c5be1e5ebec7d5bd14f71427d1e84f3dd0314c0f7b2291e5b200ac8c7c3b925836040516120719190612e1e565b60405180910390a3505050565b600061208a848461182d565b90507fffffffffffffffffffffffffffffffffffffffffffffffffffffffffffffffff811461210457818110156120f6576040517f08c379a00000000000000000000000000000000000000000000000000000000081526004016120ed90612b7e565b60405180910390fd5b6121038484848403611eb3565b5b50505050565b505050565b505050565b60008135905061212381613250565b92915050565b60008135905061213881613267565b92915050565b60006020828403121561215057600080fd5b600061215e84828501612114565b91505092915050565b6000806040838503121561217a57600080fd5b600061218885828601612114565b925050602061219985828601612114565b9150509250929050565b6000806000606084860312156121b857600080fd5b60006121c686828701612114565b93505060206121d786828701612114565b92505060406121e886828701612129565b9150509250925092565b6000806040838503121561220557600080fd5b600061221385828601612114565b925050602061222485828601612129565b9150509250929050565b60006020828403121561224057600080fd5b600061224e84828501612129565b91505092915050565b6000806040838503121561226a57600080fd5b600061227885828601612129565b925050602061228985828601612114565b9150509250929050565b600080604083850312156122a657600080fd5b60006122b485828601612129565b92505060206122c585828601612129565b9150509250929050565b6122d881613117565b82525050565b6122e7816130c2565b82525050565b6122f6816130d4565b82525050565b600061230782612f91565b6123118185612f9c565b935061232181856020860161314d565b61232a8161323f565b840191505092915050565b6000612342602383612f9c565b91507f45524332303a207472616e7366657220746f20746865207a65726f206164647260008301527f65737300000000000000000000000000000000000000000000000000000000006020830152604082019050919050565b60006123a8602283612f9c565b91507f45524332303a20617070726f766520746f20746865207a65726f20616464726560008301527f73730000000000000000000000000000000000000000000000000000000000006020830152604082019050919050565b600061240e601d83612f9c565b91507f45524332303a20696e73756666696369656e7420616c6c6f77616e63650000006000830152602082019050919050565b600061244e601483612f9c565b91507f54656e616e74206973206e6f74206661756c74790000000000000000000000006000830152602082019050919050565b600061248e602683612f9c565b91507f45524332303a207472616e7366657220616d6f756e742065786365656473206260008301527f616c616e636500000000000000000000000000000000000000000000000000006020830152604082019050919050565b60006124f4602983612f9c565b91507f43616e6e6f74207061792072656e7420666f7220612070726f7065727479206e60008301527f6f742072656e74656400000000000000000000000000000000000000000000006020830152604082019050919050565b600061255a602183612f9c565b91507f4f6e6c79206f776e65722063616e207468726f77206f757420612074656e616e60008301527f74000000000000000000000000000000000000000000000000000000000000006020830152604082019050919050565b60006125c0602283612f9c565b91507f4f776e65722063616e6e6f7420706572666f726d20746865206f70657261746960008301527f6f6e0000000000000000000000000000000000000000000000000000000000006020830152604082019050919050565b6000612626601883612f9c565b91507f496e636f727265637420616d6f756e74206f662072656e7400000000000000006000830152602082019050919050565b6000612666602383612f9c565b91507f4f6e6c79206f776e65722063616e207075742070726f7065727479206f6e207360008301527f616c6500000000000000000000000000000000000000000000000000000000006020830152604082019050919050565b60006126cc601183612f9c565b91507f43616e6e6f742070617920302072656e740000000000000000000000000000006000830152602082019050919050565b600061270c601883612f9c565b91507f52656e74206e6f7420696e2070726f7065722072616e676500000000000000006000830152602082019050919050565b600061274c601583612f9c565b91507f50726f7065727479206e6f7420666f722073616c6500000000000000000000006000830152602082019050919050565b600061278c601683612f9c565b91507f5061792072656e7420616674657220616e20686f7572000000000000000000006000830152602082019050919050565b60006127cc601483612f9c565b91507f496e737566666963656e742073656375726974790000000000000000000000006000830152602082019050919050565b600061280c602883612f9c565b91507f5468697320616d6f756e74206f662070726f70657274792063616e6e6f74206260008301527f652072656e7465640000000000000000000000000000000000000000000000006020830152604082019050919050565b6000612872602583612f9c565b91507f45524332303a207472616e736665722066726f6d20746865207a65726f20616460008301527f64726573730000000000000000000000000000000000000000000000000000006020830152604082019050919050565b60006128d8601983612f9c565b91507f496e636f727265637420616d6f756e74206f662066756e6473000000000000006000830152602082019050919050565b6000612918602183612f9c565b91507f596f752068617665206e6f742072656e74656420746869732070726f7065727460008301527f79000000000000000000000000000000000000000000000000000000000000006020830152604082019050919050565b600061297e602483612f9c565b91507f45524332303a20617070726f76652066726f6d20746865207a65726f2061646460008301527f72657373000000000000000000000000000000000000000000000000000000006020830152604082019050919050565b60006129e4601883612f9c565b91507f50726f706572747920616c7265616479206f6e2073616c6500000000000000006000830152602082019050919050565b6000612a24602883612f9c565b91507f54686973206164647265737320686173206e6f742072656e746564207468652060008301527f70726f70657274790000000000000000000000000000000000000000000000006020830152604082019050919050565b6000612a8a602583612f9c565b91507f45524332303a2064656372656173656420616c6c6f77616e63652062656c6f7760008301527f207a65726f0000000000000000000000000000000000000000000000000000006020830152604082019050919050565b612aec81613100565b82525050565b612afb8161310a565b82525050565b6000602082019050612b1660008301846122ed565b92915050565b60006020820190508181036000830152612b3681846122fc565b905092915050565b60006020820190508181036000830152612b5781612335565b9050919050565b60006020820190508181036000830152612b778161239b565b9050919050565b60006020820190508181036000830152612b9781612401565b9050919050565b60006020820190508181036000830152612bb781612441565b9050919050565b60006020820190508181036000830152612bd781612481565b9050919050565b60006020820190508181036000830152612bf7816124e7565b9050919050565b60006020820190508181036000830152612c178161254d565b9050919050565b60006020820190508181036000830152612c37816125b3565b9050919050565b60006020820190508181036000830152612c5781612619565b9050919050565b60006020820190508181036000830152612c7781612659565b9050919050565b60006020820190508181036000830152612c97816126bf565b9050919050565b60006020820190508181036000830152612cb7816126ff565b9050919050565b60006020820190508181036000830152612cd78161273f565b9050919050565b60006020820190508181036000830152612cf78161277f565b9050919050565b60006020820190508181036000830152612d17816127bf565b9050919050565b60006020820190508181036000830152612d37816127ff565b9050919050565b60006020820190508181036000830152612d5781612865565b9050919050565b60006020820190508181036000830152612d77816128cb565b9050919050565b60006020820190508181036000830152612d978161290b565b9050919050565b60006020820190508181036000830152612db781612971565b9050919050565b60006020820190508181036000830152612dd7816129d7565b9050919050565b60006020820190508181036000830152612df781612a17565b9050919050565b60006020820190508181036000830152612e1781612a7d565b9050919050565b6000602082019050612e336000830184612ae3565b92915050565b6000604082019050612e4e6000830185612ae3565b612e5b60208301846122de565b9392505050565b6000608082019050612e776000830187612ae3565b612e8460208301866122cf565b612e9160408301856122de565b612e9e6060830184612ae3565b95945050505050565b6000606082019050612ebc6000830186612ae3565b612ec960208301856122de565b612ed660408301846122de565b949350505050565b6000608082019050612ef36000830187612ae3565b612f0060208301866122de565b612f0d60408301856122de565b612f1a6060830184612ae3565b95945050505050565b600060a082019050612f386000830188612ae3565b612f4560208301876122de565b612f5260408301866122de565b612f5f6060830185612ae3565b612f6c6080830184612ae3565b9695505050505050565b6000602082019050612f8b6000830184612af2565b92915050565b600081519050919050565b600082825260208201905092915050565b6000612fb882613100565b9150612fc383613100565b9250827fffffffffffffffffffffffffffffffffffffffffffffffffffffffffffffffff03821115612ff857612ff76131b2565b5b828201905092915050565b600061300e82613100565b915061301983613100565b925082613029576130286131e1565b5b828204905092915050565b600061303f82613100565b915061304a83613100565b9250817fffffffffffffffffffffffffffffffffffffffffffffffffffffffffffffffff0483118215151615613083576130826131b2565b5b828202905092915050565b600061309982613100565b91506130a483613100565b9250828210156130b7576130b66131b2565b5b828203905092915050565b60006130cd826130e0565b9050919050565b60008115159050919050565b600073ffffffffffffffffffffffffffffffffffffffff82169050919050565b6000819050919050565b600060ff82169050919050565b600061312282613129565b9050919050565b60006131348261313b565b9050919050565b6000613146826130e0565b9050919050565b60005b8381101561316b578082015181840152602081019050613150565b8381111561317a576000848401525b50505050565b6000600282049050600182168061319857607f821691505b602082108114156131ac576131ab613210565b5b50919050565b7f4e487b7100000000000000000000000000000000000000000000000000000000600052601160045260246000fd5b7f4e487b7100000000000000000000000000000000000000000000000000000000600052601260045260246000fd5b7f4e487b7100000000000000000000000000000000000000000000000000000000600052602260045260246000fd5b6000601f19601f8301169050919050565b613259816130c2565b811461326457600080fd5b50565b61327081613100565b811461327b57600080fd5b5056fea2646970667358221220911fea7c5fadb8e2141210891bb34acb70b1c11424a1412ec4661f4f5ff5251564736f6c63430008000033",
  "immutableReferences": {},
  "source": "/*\n    1. Make properties as Erc20: new tokens fro each property\n    2. Users can buy,sell,rent\n    3. Owners will receive rent from tenants at month's end\n*/\n\n//1.Check array in prop_balance\n//2. POst prpoerty on sale(post)\n// 3 . take security deposit from tenant\n\n\npragma solidity ^0.8.0;\nimport \"@openzeppelin/contracts/token/ERC20/ERC20.sol\";\n\ncontract RealEstate is ERC20{\n\n    struct Property{\n\n        uint id;\n        address owner;\n        uint price;\n        bool onSale;\n\n        \n\n    }\n\n    \n\n    event PropertyCreated(\n\n        uint id,\n        address owner,\n        uint price,\n        uint balance,\n        bool onSale\n    );\n\n\n    event BuyEvent(\n\n        uint id,\n        address from,\n        address to,\n        uint price\n    );\n\n    event RentEvent(\n\n        uint id,\n        address tenat,\n        address owner,\n        uint percent,\n        uint time\n    );\n\n    event DeRentEvent(\n\n        uint id,\n        address tenant,\n        address owner\n    );\n\n    event PayRentEvent(\n\n        uint id,\n        address tenant,\n        address owner,\n        uint rent\n    );\n\n    event ThrowTenantEvent(\n\n        uint id,\n        address tenant,\n        address owner\n    );\n\n    event PostEvent(\n\n        uint id,\n        address owner\n    );\n    \n    \n    mapping(address=>mapping(uint=>uint)) prop_balance; //address -prop id - balance\n    mapping(address=>mapping(uint=>uint)) prop_time; //address - prop id - time\n    mapping(uint=>Property) prop_list;\n\n    modifier notOwner(uint id) {\n\n        Property storage p = prop_list[id];\n\n        require(msg.sender!=p.owner,'Owner cannot perform the operation');\n        _;\n    }\n\n    constructor(uint properties)  ERC20(\"Property\",\"PPT\"){\n        \n\n       for(uint i=0;i<properties;i++){\n\n            Property memory p = Property(i,msg.sender,(i+1)*10,false);\n\n            prop_list[i]=p;\n\n            _mint(msg.sender,10);\n\n            prop_balance[msg.sender][i]=10;\n\n\n            emit PropertyCreated(p.id,p.owner,p.price,balanceOf(msg.sender),false);\n\n        }\n    }\n\n  /*  function get_property(uint id) public {\n\n        Property memory p = prop_list[id];\n\n        emit PropertyCreated(id,p.owner,p.price, balanceOf(p.owner),false);\n\n        \n    }*/\n\n    function buy(uint id) public payable notOwner(id){\n\n        Property storage p = prop_list[id];\n\n\n        require(p.onSale==true,'Property not for sale');\n        require(msg.value==p.price,'Incorrect amount of funds');\n\n        address payable prev_owner = payable(p.owner);\n\n        prev_owner.transfer(msg.value); //money sent\n\n        uint balance = prop_balance[prev_owner][id];\n\n        prop_balance[msg.sender][id]+=balance;\n\n        prop_balance[prev_owner][id]=0;\n\n        //increaseAllowance(prev_owner, balance);\n        _transfer(prev_owner, msg.sender,balance);\n\n        p.onSale=false;\n        p.owner  =msg.sender;\n\n        emit BuyEvent(id,prev_owner,p.owner,p.price);\n\n\n    }\n\n    \n\n    function rent(uint id,uint percent) public payable notOwner(id){\n\n        Property storage  p = prop_list[id];\n\n        \n        \n        require(percent>0 && percent<=10,'Rent not in proper range');\n\n        uint tokens = percent;\n\n        require(prop_balance[p.owner][id]>=tokens,'This amount of property cannot be rented');\n\n        uint security  =  percent*(p.price/10);\n        \n\n        require(msg.value==security,'Insufficent security');\n\n       // approve(p.owner,tokens);\n        _transfer(p.owner,msg.sender,tokens);\n        payable(p.owner).transfer(msg.value);\n\n        prop_balance[p.owner][id]-=tokens;\n        prop_balance[msg.sender][id]+=tokens;\n\n        prop_time[msg.sender][id] = block.timestamp;\n\n        emit RentEvent(id,msg.sender,p.owner,percent,block.timestamp);\n    }\n\n    function de_rent(uint id) public notOwner(id) {\n\n        Property storage p = prop_list[id];\n\n        require(prop_balance[msg.sender][id]>0,'You have not rented this property');\n\n        uint balance = prop_balance[msg.sender][id];\n       // increaseAllowance(p.owner, balance);\n        _transfer(msg.sender,p.owner, balance);\n\n        \n        prop_balance[msg.sender][id]=0;\n        prop_time[msg.sender][id]=0;\n        prop_balance[p.owner][id]+=balance;\n\n        emit DeRentEvent(id,msg.sender,p.owner);\n    }\n\n    function pay_rent(uint id) public payable notOwner(id){\n\n        Property storage p = prop_list[id];\n\n        require(prop_balance[msg.sender][id]>0,'Cannot pay rent for a property not rented');\n\n        uint time_elapsed = (block.timestamp - prop_time[msg.sender][id]);  //hour\n\n        require(time_elapsed>=1,'Pay rent after an hour');\n\n        uint rent_pay = (prop_balance[msg.sender][id])*(p.price/10);\n        rent_pay*=time_elapsed;\n\n        require(rent_pay>0,'Cannot pay 0 rent');\n\n\n        require(msg.value==rent_pay,'Incorrect amount of rent');\n\n        payable(p.owner).transfer(msg.value);\n\n        prop_time[msg.sender][id]=block.timestamp;\n\n        emit PayRentEvent(id,msg.sender,p.owner,msg.value);\n\n    }\n\n    function throw_faulty_tenant(uint id,address tenant)  public {\n\n        Property storage p = prop_list[id];\n\n        require(p.owner==msg.sender,'Only owner can throw out a tenant');\n        uint time_elapsed = (block.timestamp - prop_time[tenant][id]);  //hour\n\n        require(time_elapsed>=1,'Tenant is not faulty');\n\n        require(prop_balance[tenant][id]>0,'This address has not rented the property');\n\n        uint balance = prop_balance[tenant][id];\n       // approve(tenant,balance);\n        _transfer(tenant,p.owner,balance);\n\n        prop_balance[tenant][id]=0;\n        prop_balance[p.owner][id]+=balance;\n        \n        emit ThrowTenantEvent(id,tenant,msg.sender);\n\n        \n\n        \n\n       \n    }  \n\n    function postProperty(uint id) public {\n\n        Property storage p = prop_list[id];\n        require(p.owner==msg.sender,'Only owner can put property on sale');\n        require(p.onSale==false,'Property already on sale');\n\n        p.onSale=true;\n\n        emit PostEvent(id,p.owner);\n    }\n}",
  "sourcePath": "/home/alabhinav/Documents/solidity/RealEstate/src/contracts/RealEstate.sol",
  "compiler": {
    "name": "solc",
    "version": "0.8.0+commit.c7dfd78e.Emscripten.clang"
  },
  "schemaVersion": "3.4.8",
  "updatedAt": "2022-07-18T10:14:43.028Z",
  "networkType": "ethereum",
  "devdoc": {
    "kind": "dev",
    "methods": {
      "allowance(address,address)": {
        "details": "See {IERC20-allowance}."
      },
      "approve(address,uint256)": {
        "details": "See {IERC20-approve}. NOTE: If `amount` is the maximum `uint256`, the allowance is not updated on `transferFrom`. This is semantically equivalent to an infinite approval. Requirements: - `spender` cannot be the zero address."
      },
      "balanceOf(address)": {
        "details": "See {IERC20-balanceOf}."
      },
      "decimals()": {
        "details": "Returns the number of decimals used to get its user representation. For example, if `decimals` equals `2`, a balance of `505` tokens should be displayed to a user as `5.05` (`505 / 10 ** 2`). Tokens usually opt for a value of 18, imitating the relationship between Ether and Wei. This is the value {ERC20} uses, unless this function is overridden; NOTE: This information is only used for _display_ purposes: it in no way affects any of the arithmetic of the contract, including {IERC20-balanceOf} and {IERC20-transfer}."
      },
      "decreaseAllowance(address,uint256)": {
        "details": "Atomically decreases the allowance granted to `spender` by the caller. This is an alternative to {approve} that can be used as a mitigation for problems described in {IERC20-approve}. Emits an {Approval} event indicating the updated allowance. Requirements: - `spender` cannot be the zero address. - `spender` must have allowance for the caller of at least `subtractedValue`."
      },
      "increaseAllowance(address,uint256)": {
        "details": "Atomically increases the allowance granted to `spender` by the caller. This is an alternative to {approve} that can be used as a mitigation for problems described in {IERC20-approve}. Emits an {Approval} event indicating the updated allowance. Requirements: - `spender` cannot be the zero address."
      },
      "name()": {
        "details": "Returns the name of the token."
      },
      "symbol()": {
        "details": "Returns the symbol of the token, usually a shorter version of the name."
      },
      "totalSupply()": {
        "details": "See {IERC20-totalSupply}."
      },
      "transfer(address,uint256)": {
        "details": "See {IERC20-transfer}. Requirements: - `to` cannot be the zero address. - the caller must have a balance of at least `amount`."
      },
      "transferFrom(address,address,uint256)": {
        "details": "See {IERC20-transferFrom}. Emits an {Approval} event indicating the updated allowance. This is not required by the EIP. See the note at the beginning of {ERC20}. NOTE: Does not update the allowance if the current allowance is the maximum `uint256`. Requirements: - `from` and `to` cannot be the zero address. - `from` must have a balance of at least `amount`. - the caller must have allowance for ``from``'s tokens of at least `amount`."
      }
    },
    "version": 1
  },
  "userdoc": {
    "kind": "user",
    "methods": {},
    "version": 1
  }
}