{
  "contractName": "RealEstate",
  "abi": [
    {
      "inputs": [
        {
          "internalType": "uint256",
          "name": "properties",
          "type": "uint256"
        }
      ],
      "stateMutability": "nonpayable",
      "type": "constructor"
    },
    {
      "anonymous": false,
      "inputs": [
        {
          "indexed": true,
          "internalType": "address",
          "name": "owner",
          "type": "address"
        },
        {
          "indexed": true,
          "internalType": "address",
          "name": "spender",
          "type": "address"
        },
        {
          "indexed": false,
          "internalType": "uint256",
          "name": "value",
          "type": "uint256"
        }
      ],
      "name": "Approval",
      "type": "event"
    },
    {
      "anonymous": false,
      "inputs": [
        {
          "indexed": false,
          "internalType": "uint256",
          "name": "id",
          "type": "uint256"
        },
        {
          "indexed": false,
          "internalType": "address",
          "name": "from",
          "type": "address"
        },
        {
          "indexed": false,
          "internalType": "address",
          "name": "to",
          "type": "address"
        },
        {
          "indexed": false,
          "internalType": "uint256",
          "name": "price",
          "type": "uint256"
        }
      ],
      "name": "BuyEvent",
      "type": "event"
    },
    {
      "anonymous": false,
      "inputs": [
        {
          "indexed": false,
          "internalType": "uint256",
          "name": "id",
          "type": "uint256"
        },
        {
          "indexed": false,
          "internalType": "address",
          "name": "tenant",
          "type": "address"
        },
        {
          "indexed": false,
          "internalType": "address",
          "name": "owner",
          "type": "address"
        }
      ],
      "name": "DeRentEvent",
      "type": "event"
    },
    {
      "anonymous": false,
      "inputs": [
        {
          "indexed": false,
          "internalType": "uint256",
          "name": "id",
          "type": "uint256"
        },
        {
          "indexed": false,
          "internalType": "address",
          "name": "tenant",
          "type": "address"
        },
        {
          "indexed": false,
          "internalType": "address",
          "name": "owner",
          "type": "address"
        },
        {
          "indexed": false,
          "internalType": "uint256",
          "name": "rent",
          "type": "uint256"
        }
      ],
      "name": "PayRentEvent",
      "type": "event"
    },
    {
      "anonymous": false,
      "inputs": [
        {
          "indexed": false,
          "internalType": "uint256",
          "name": "id",
          "type": "uint256"
        },
        {
          "indexed": false,
          "internalType": "address",
          "name": "owner",
          "type": "address"
        }
      ],
      "name": "PostEvent",
      "type": "event"
    },
    {
      "anonymous": false,
      "inputs": [
        {
          "indexed": false,
          "internalType": "uint256",
          "name": "id",
          "type": "uint256"
        },
        {
          "indexed": false,
          "internalType": "address",
          "name": "owner",
          "type": "address"
        },
        {
          "indexed": false,
          "internalType": "uint256",
          "name": "price",
          "type": "uint256"
        },
        {
          "indexed": false,
          "internalType": "uint256",
          "name": "balance",
          "type": "uint256"
        },
        {
          "indexed": false,
          "internalType": "bool",
          "name": "onSale",
          "type": "bool"
        }
      ],
      "name": "PropertyCreated",
      "type": "event"
    },
    {
      "anonymous": false,
      "inputs": [
        {
          "indexed": false,
          "internalType": "uint256",
          "name": "id",
          "type": "uint256"
        },
        {
          "indexed": false,
          "internalType": "address",
          "name": "tenat",
          "type": "address"
        },
        {
          "indexed": false,
          "internalType": "address",
          "name": "owner",
          "type": "address"
        },
        {
          "indexed": false,
          "internalType": "uint256",
          "name": "percent",
          "type": "uint256"
        },
        {
          "indexed": false,
          "internalType": "uint256",
          "name": "time",
          "type": "uint256"
        }
      ],
      "name": "RentEvent",
      "type": "event"
    },
    {
      "anonymous": false,
      "inputs": [
        {
          "indexed": false,
          "internalType": "uint256",
          "name": "id",
          "type": "uint256"
        },
        {
          "indexed": false,
          "internalType": "address",
          "name": "tenant",
          "type": "address"
        },
        {
          "indexed": false,
          "internalType": "address",
          "name": "owner",
          "type": "address"
        }
      ],
      "name": "ThrowTenantEvent",
      "type": "event"
    },
    {
      "anonymous": false,
      "inputs": [
        {
          "indexed": true,
          "internalType": "address",
          "name": "from",
          "type": "address"
        },
        {
          "indexed": true,
          "internalType": "address",
          "name": "to",
          "type": "address"
        },
        {
          "indexed": false,
          "internalType": "uint256",
          "name": "value",
          "type": "uint256"
        }
      ],
      "name": "Transfer",
      "type": "event"
    },
    {
      "inputs": [
        {
          "internalType": "address",
          "name": "owner",
          "type": "address"
        },
        {
          "internalType": "address",
          "name": "spender",
          "type": "address"
        }
      ],
      "name": "allowance",
      "outputs": [
        {
          "internalType": "uint256",
          "name": "",
          "type": "uint256"
        }
      ],
      "stateMutability": "view",
      "type": "function"
    },
    {
      "inputs": [
        {
          "internalType": "address",
          "name": "spender",
          "type": "address"
        },
        {
          "internalType": "uint256",
          "name": "amount",
          "type": "uint256"
        }
      ],
      "name": "approve",
      "outputs": [
        {
          "internalType": "bool",
          "name": "",
          "type": "bool"
        }
      ],
      "stateMutability": "nonpayable",
      "type": "function"
    },
    {
      "inputs": [
        {
          "internalType": "address",
          "name": "account",
          "type": "address"
        }
      ],
      "name": "balanceOf",
      "outputs": [
        {
          "internalType": "uint256",
          "name": "",
          "type": "uint256"
        }
      ],
      "stateMutability": "view",
      "type": "function"
    },
    {
      "inputs": [],
      "name": "decimals",
      "outputs": [
        {
          "internalType": "uint8",
          "name": "",
          "type": "uint8"
        }
      ],
      "stateMutability": "view",
      "type": "function"
    },
    {
      "inputs": [
        {
          "internalType": "address",
          "name": "spender",
          "type": "address"
        },
        {
          "internalType": "uint256",
          "name": "subtractedValue",
          "type": "uint256"
        }
      ],
      "name": "decreaseAllowance",
      "outputs": [
        {
          "internalType": "bool",
          "name": "",
          "type": "bool"
        }
      ],
      "stateMutability": "nonpayable",
      "type": "function"
    },
    {
      "inputs": [
        {
          "internalType": "address",
          "name": "spender",
          "type": "address"
        },
        {
          "internalType": "uint256",
          "name": "addedValue",
          "type": "uint256"
        }
      ],
      "name": "increaseAllowance",
      "outputs": [
        {
          "internalType": "bool",
          "name": "",
          "type": "bool"
        }
      ],
      "stateMutability": "nonpayable",
      "type": "function"
    },
    {
      "inputs": [],
      "name": "name",
      "outputs": [
        {
          "internalType": "string",
          "name": "",
          "type": "string"
        }
      ],
      "stateMutability": "view",
      "type": "function"
    },
    {
      "inputs": [],
      "name": "symbol",
      "outputs": [
        {
          "internalType": "string",
          "name": "",
          "type": "string"
        }
      ],
      "stateMutability": "view",
      "type": "function"
    },
    {
      "inputs": [],
      "name": "totalSupply",
      "outputs": [
        {
          "internalType": "uint256",
          "name": "",
          "type": "uint256"
        }
      ],
      "stateMutability": "view",
      "type": "function"
    },
    {
      "inputs": [
        {
          "internalType": "address",
          "name": "to",
          "type": "address"
        },
        {
          "internalType": "uint256",
          "name": "amount",
          "type": "uint256"
        }
      ],
      "name": "transfer",
      "outputs": [
        {
          "internalType": "bool",
          "name": "",
          "type": "bool"
        }
      ],
      "stateMutability": "nonpayable",
      "type": "function"
    },
    {
      "inputs": [
        {
          "internalType": "address",
          "name": "from",
          "type": "address"
        },
        {
          "internalType": "address",
          "name": "to",
          "type": "address"
        },
        {
          "internalType": "uint256",
          "name": "amount",
          "type": "uint256"
        }
      ],
      "name": "transferFrom",
      "outputs": [
        {
          "internalType": "bool",
          "name": "",
          "type": "bool"
        }
      ],
      "stateMutability": "nonpayable",
      "type": "function"
    },
    {
      "inputs": [
        {
          "internalType": "uint256",
          "name": "id",
          "type": "uint256"
        }
      ],
      "name": "get_property",
      "outputs": [
        {
          "internalType": "uint256",
          "name": "",
          "type": "uint256"
        }
      ],
      "stateMutability": "nonpayable",
      "type": "function"
    },
    {
      "inputs": [
        {
          "internalType": "uint256",
          "name": "id",
          "type": "uint256"
        }
      ],
      "name": "buy",
      "outputs": [],
      "stateMutability": "payable",
      "type": "function"
    },
    {
      "inputs": [
        {
          "internalType": "uint256",
          "name": "id",
          "type": "uint256"
        },
        {
          "internalType": "uint256",
          "name": "percent",
          "type": "uint256"
        }
      ],
      "name": "rent",
      "outputs": [],
      "stateMutability": "payable",
      "type": "function"
    },
    {
      "inputs": [
        {
          "internalType": "uint256",
          "name": "id",
          "type": "uint256"
        }
      ],
      "name": "de_rent",
      "outputs": [],
      "stateMutability": "nonpayable",
      "type": "function"
    },
    {
      "inputs": [
        {
          "internalType": "uint256",
          "name": "id",
          "type": "uint256"
        }
      ],
      "name": "pay_rent",
      "outputs": [],
      "stateMutability": "payable",
      "type": "function"
    },
    {
      "inputs": [
        {
          "internalType": "uint256",
          "name": "id",
          "type": "uint256"
        },
        {
          "internalType": "address",
          "name": "tenant",
          "type": "address"
        }
      ],
      "name": "throw_faulty_tenant",
      "outputs": [],
      "stateMutability": "nonpayable",
      "type": "function"
    },
    {
      "inputs": [
        {
          "internalType": "uint256",
          "name": "id",
          "type": "uint256"
        }
      ],
      "name": "postProperty",
      "outputs": [],
      "stateMutability": "nonpayable",
      "type": "function"
    }
  ],
  "bytecode": "0x60806040523480156200001157600080fd5b50604051620042723803806200427283398181016040528101906200003791906200059b565b6040518060400160405280600881526020017f50726f70657274790000000000000000000000000000000000000000000000008152506040518060400160405280600381526020017f50505400000000000000000000000000000000000000000000000000000000008152508160039080519060200190620000bb929190620004d4565b508060049080519060200190620000d4929190620004d4565b50505060005b818110156200030157600060405180608001604052808381526020013373ffffffffffffffffffffffffffffffffffffffff168152602001600184620001219190620006e9565b815260200160001515815250905080600760008481526020019081526020016000206000820151816000015560208201518160010160006101000a81548173ffffffffffffffffffffffffffffffffffffffff021916908373ffffffffffffffffffffffffffffffffffffffff1602179055506040820151816002015560608201518160030160006101000a81548160ff021916908315150217905550905050620001ec33670de0b6b3a76400008360400151620001e0919062000746565b6200030960201b60201c565b670de0b6b3a7640000816040015162000206919062000746565b600560003373ffffffffffffffffffffffffffffffffffffffff1673ffffffffffffffffffffffffffffffffffffffff16815260200190815260200160002083815481106200027e577f4e487b7100000000000000000000000000000000000000000000000000000000600052603260045260246000fd5b90600052602060002001819055507f5ed1c6df55d3687f5875210a49134a0e8ae2c095dd4c8a11ecc183b579566816816000015182602001518360400151620002cd336200048260201b60201c565b6000604051620002e29594939291906200067b565b60405180910390a1508080620002f89062000827565b915050620000da565b5050620008ed565b600073ffffffffffffffffffffffffffffffffffffffff168273ffffffffffffffffffffffffffffffffffffffff1614156200037c576040517f08c379a000000000000000000000000000000000000000000000000000000000815260040162000373906200063c565b60405180910390fd5b6200039060008383620004ca60201b60201c565b8060026000828254620003a49190620006e9565b92505081905550806000808473ffffffffffffffffffffffffffffffffffffffff1673ffffffffffffffffffffffffffffffffffffffff1681526020019081526020016000206000828254620003fb9190620006e9565b925050819055508173ffffffffffffffffffffffffffffffffffffffff16600073ffffffffffffffffffffffffffffffffffffffff167fddf252ad1be2c89b69c2b068fc378daa952ba7f163c4a11628f55a4df523b3ef836040516200046291906200065e565b60405180910390a36200047e60008383620004cf60201b60201c565b5050565b60008060008373ffffffffffffffffffffffffffffffffffffffff1673ffffffffffffffffffffffffffffffffffffffff168152602001908152602001600020549050919050565b505050565b505050565b828054620004e290620007f1565b90600052602060002090601f01602090048101928262000506576000855562000552565b82601f106200052157805160ff191683800117855562000552565b8280016001018555821562000552579182015b828111156200055157825182559160200191906001019062000534565b5b50905062000561919062000565565b5090565b5b808211156200058057600081600090555060010162000566565b5090565b6000815190506200059581620008d3565b92915050565b600060208284031215620005ae57600080fd5b6000620005be8482850162000584565b91505092915050565b620005d281620007a7565b82525050565b620005e381620007bb565b82525050565b6000620005f8601f83620006d8565b91507f45524332303a206d696e7420746f20746865207a65726f2061646472657373006000830152602082019050919050565b6200063681620007e7565b82525050565b600060208201905081810360008301526200065781620005e9565b9050919050565b60006020820190506200067560008301846200062b565b92915050565b600060a0820190506200069260008301886200062b565b620006a16020830187620005c7565b620006b060408301866200062b565b620006bf60608301856200062b565b620006ce6080830184620005d8565b9695505050505050565b600082825260208201905092915050565b6000620006f682620007e7565b91506200070383620007e7565b9250827fffffffffffffffffffffffffffffffffffffffffffffffffffffffffffffffff038211156200073b576200073a62000875565b5b828201905092915050565b60006200075382620007e7565b91506200076083620007e7565b9250817fffffffffffffffffffffffffffffffffffffffffffffffffffffffffffffffff04831182151516156200079c576200079b62000875565b5b828202905092915050565b6000620007b482620007c7565b9050919050565b60008115159050919050565b600073ffffffffffffffffffffffffffffffffffffffff82169050919050565b6000819050919050565b600060028204905060018216806200080a57607f821691505b60208210811415620008215762000820620008a4565b5b50919050565b60006200083482620007e7565b91507fffffffffffffffffffffffffffffffffffffffffffffffffffffffffffffffff8214156200086a576200086962000875565b5b600182019050919050565b7f4e487b7100000000000000000000000000000000000000000000000000000000600052601160045260246000fd5b7f4e487b7100000000000000000000000000000000000000000000000000000000600052602260045260246000fd5b620008de81620007e7565b8114620008ea57600080fd5b50565b61397580620008fd6000396000f3fe6080604052600436106101095760003560e01c8063499b9bfb11610095578063a457c2d711610064578063a457c2d714610375578063a9059cbb146103b2578063d96a094a146103ef578063dd62ed3e1461040b578063f6cdde111461044857610109565b8063499b9bfb146102d557806370a08231146102f1578063783a112b1461032e57806395d89b411461034a57610109565b806323b872dd116100dc57806323b872dd146101ca5780632ba9a4f114610207578063313ce56714610244578063341fd4d91461026f578063395093511461029857610109565b806306f9e9541461010e57806306fdde0314610137578063095ea7b31461016257806318160ddd1461019f575b600080fd5b34801561011a57600080fd5b5061013560048036038101906101309190612865565b610471565b005b34801561014357600080fd5b5061014c610906565b604051610159919061316a565b60405180910390f35b34801561016e57600080fd5b5061018960048036038101906101849190612800565b610998565b604051610196919061314f565b60405180910390f35b3480156101ab57600080fd5b506101b46109bb565b6040516101c1919061348c565b60405180910390f35b3480156101d657600080fd5b506101f160048036038101906101ec91906127b1565b6109c5565b6040516101fe919061314f565b60405180910390f35b34801561021357600080fd5b5061022e6004803603810190610229919061283c565b6109f4565b60405161023b919061348c565b60405180910390f35b34801561025057600080fd5b50610259610afd565b6040516102669190613637565b60405180910390f35b34801561027b57600080fd5b506102966004803603810190610291919061283c565b610b06565b005b3480156102a457600080fd5b506102bf60048036038101906102ba9190612800565b610c85565b6040516102cc919061314f565b60405180910390f35b6102ef60048036038101906102ea919061283c565b610cbc565b005b3480156102fd57600080fd5b506103186004803603810190610313919061274c565b6111aa565b604051610325919061348c565b60405180910390f35b610348600480360381019061034391906128a1565b6111f2565b005b34801561035657600080fd5b5061035f6117f8565b60405161036c919061316a565b60405180910390f35b34801561038157600080fd5b5061039c60048036038101906103979190612800565b61188a565b6040516103a9919061314f565b60405180910390f35b3480156103be57600080fd5b506103d960048036038101906103d49190612800565b611901565b6040516103e6919061314f565b60405180910390f35b6104096004803603810190610404919061283c565b611924565b005b34801561041757600080fd5b50610432600480360381019061042d9190612775565b611d3a565b60405161043f919061348c565b60405180910390f35b34801561045457600080fd5b5061046f600480360381019061046a919061283c565b611dc1565b005b60006007600084815260200190815260200160002090503373ffffffffffffffffffffffffffffffffffffffff168160010160009054906101000a900473ffffffffffffffffffffffffffffffffffffffff1673ffffffffffffffffffffffffffffffffffffffff161461051a576040517f08c379a00000000000000000000000000000000000000000000000000000000081526004016105119061324c565b60405180910390fd5b6000611770600660008573ffffffffffffffffffffffffffffffffffffffff1673ffffffffffffffffffffffffffffffffffffffff1681526020019081526020016000208581548110610596577f4e487b7100000000000000000000000000000000000000000000000000000000600052603260045260246000fd5b9060005260206000200154426105ac919061374f565b6105b691906136c4565b905060018110156105fc576040517f08c379a00000000000000000000000000000000000000000000000000000000081526004016105f3906131ec565b60405180910390fd5b6000600560008573ffffffffffffffffffffffffffffffffffffffff1673ffffffffffffffffffffffffffffffffffffffff1681526020019081526020016000208581548110610675577f4e487b7100000000000000000000000000000000000000000000000000000000600052603260045260246000fd5b9060005260206000200154116106c0576040517f08c379a00000000000000000000000000000000000000000000000000000000081526004016106b79061344c565b60405180910390fd5b6000600560008573ffffffffffffffffffffffffffffffffffffffff1673ffffffffffffffffffffffffffffffffffffffff1681526020019081526020016000208581548110610739577f4e487b7100000000000000000000000000000000000000000000000000000000600052603260045260246000fd5b906000526020600020015490506107508482610998565b50610780848460010160009054906101000a900473ffffffffffffffffffffffffffffffffffffffff16836109c5565b506000600560008673ffffffffffffffffffffffffffffffffffffffff1673ffffffffffffffffffffffffffffffffffffffff16815260200190815260200160002086815481106107fa577f4e487b7100000000000000000000000000000000000000000000000000000000600052603260045260246000fd5b906000526020600020018190555080600560008560010160009054906101000a900473ffffffffffffffffffffffffffffffffffffffff1673ffffffffffffffffffffffffffffffffffffffff1673ffffffffffffffffffffffffffffffffffffffff16815260200190815260200160002086815481106108a4577f4e487b7100000000000000000000000000000000000000000000000000000000600052603260045260246000fd5b9060005260206000200160008282546108bd919061366e565b925050819055507fc3e6fc2ad655a6b8a8526beef12aec3feec8ead853e6f32732051a40f9b0ebe68585336040516108f793929190613515565b60405180910390a15050505050565b60606003805461091590613841565b80601f016020809104026020016040519081016040528092919081815260200182805461094190613841565b801561098e5780601f106109635761010080835404028352916020019161098e565b820191906000526020600020905b81548152906001019060200180831161097157829003601f168201915b5050505050905090565b6000806109a3612238565b90506109b0818585612240565b600191505092915050565b6000600254905090565b6000806109d0612238565b90506109dd85828561240b565b6109e8858585612497565b60019150509392505050565b60008060076000848152602001908152602001600020604051806080016040529081600082015481526020016001820160009054906101000a900473ffffffffffffffffffffffffffffffffffffffff1673ffffffffffffffffffffffffffffffffffffffff1673ffffffffffffffffffffffffffffffffffffffff168152602001600282015481526020016003820160009054906101000a900460ff16151515158152505090507f5ed1c6df55d3687f5875210a49134a0e8ae2c095dd4c8a11ecc183b5795668168382602001518360400151610ad585602001516111aa565b6000604051610ae89594939291906135e4565b60405180910390a18060400151915050919050565b60006012905090565b60006007600083815260200190815260200160002090503373ffffffffffffffffffffffffffffffffffffffff168160010160009054906101000a900473ffffffffffffffffffffffffffffffffffffffff1673ffffffffffffffffffffffffffffffffffffffff1614610baf576040517f08c379a0000000000000000000000000000000000000000000000000000000008152600401610ba6906132ac565b60405180910390fd5b600015158160030160009054906101000a900460ff16151514610c07576040517f08c379a0000000000000000000000000000000000000000000000000000000008152600401610bfe9061342c565b60405180910390fd5b60018160030160006101000a81548160ff0219169083151502179055507f16107c162de5eddaa0d10676c2fecf22b97f5005218305a80dca0531e4b8322c828260010160009054906101000a900473ffffffffffffffffffffffffffffffffffffffff16604051610c799291906134a7565b60405180910390a15050565b600080610c90612238565b9050610cb1818585610ca28589611d3a565b610cac919061366e565b612240565b600191505092915050565b8060006007600083815260200190815260200160002090508060010160009054906101000a900473ffffffffffffffffffffffffffffffffffffffff1673ffffffffffffffffffffffffffffffffffffffff163373ffffffffffffffffffffffffffffffffffffffff161415610d67576040517f08c379a0000000000000000000000000000000000000000000000000000000008152600401610d5e9061326c565b60405180910390fd5b60006007600085815260200190815260200160002090506000600560003373ffffffffffffffffffffffffffffffffffffffff1673ffffffffffffffffffffffffffffffffffffffff1681526020019081526020016000208581548110610df7577f4e487b7100000000000000000000000000000000000000000000000000000000600052603260045260246000fd5b906000526020600020015411610e42576040517f08c379a0000000000000000000000000000000000000000000000000000000008152600401610e399061322c565b60405180910390fd5b600061ea60600660003373ffffffffffffffffffffffffffffffffffffffff1673ffffffffffffffffffffffffffffffffffffffff1681526020019081526020016000208681548110610ebe577f4e487b7100000000000000000000000000000000000000000000000000000000600052603260045260246000fd5b906000526020600020015442610ed4919061374f565b610ede91906136c4565b90506001811015610f24576040517f08c379a0000000000000000000000000000000000000000000000000000000008152600401610f1b9061332c565b60405180910390fd5b6000670de0b6b3a7640000600560003373ffffffffffffffffffffffffffffffffffffffff1673ffffffffffffffffffffffffffffffffffffffff1681526020019081526020016000208781548110610fa6577f4e487b7100000000000000000000000000000000000000000000000000000000600052603260045260246000fd5b9060005260206000200154610fbb91906136c4565b90508181610fc991906136f5565b90506000811161100e576040517f08c379a0000000000000000000000000000000000000000000000000000000008152600401611005906132cc565b60405180910390fd5b803414611050576040517f08c379a00000000000000000000000000000000000000000000000000000000081526004016110479061328c565b60405180910390fd5b8260010160009054906101000a900473ffffffffffffffffffffffffffffffffffffffff1673ffffffffffffffffffffffffffffffffffffffff166108fc349081150290604051600060405180830381858888f193505050501580156110ba573d6000803e3d6000fd5b5042600660003373ffffffffffffffffffffffffffffffffffffffff1673ffffffffffffffffffffffffffffffffffffffff1681526020019081526020016000208781548110611133577f4e487b7100000000000000000000000000000000000000000000000000000000600052603260045260246000fd5b90600052602060002001819055507f732c441310b0fe2a8d664d3e03726f9211a73cc57f823b32f73ae4815baef0bc86338560010160009054906101000a900473ffffffffffffffffffffffffffffffffffffffff163460405161119a949392919061354c565b60405180910390a1505050505050565b60008060008373ffffffffffffffffffffffffffffffffffffffff1673ffffffffffffffffffffffffffffffffffffffff168152602001908152602001600020549050919050565b8160006007600083815260200190815260200160002090508060010160009054906101000a900473ffffffffffffffffffffffffffffffffffffffff1673ffffffffffffffffffffffffffffffffffffffff163373ffffffffffffffffffffffffffffffffffffffff16141561129d576040517f08c379a00000000000000000000000000000000000000000000000000000000081526004016112949061326c565b60405180910390fd5b600060076000868152602001908152602001600020905060648414156112f8576040517f08c379a00000000000000000000000000000000000000000000000000000000081526004016112ef9061340c565b60405180910390fd5b600084118015611309575060638411155b611348576040517f08c379a000000000000000000000000000000000000000000000000000000000815260040161133f906132ec565b60405180910390fd5b6000670de0b6b3a7640000826002015460648761136591906136c4565b61136f91906136f5565b61137991906136f5565b905080600560008460010160009054906101000a900473ffffffffffffffffffffffffffffffffffffffff1673ffffffffffffffffffffffffffffffffffffffff1673ffffffffffffffffffffffffffffffffffffffff1681526020019081526020016000208781548110611417577f4e487b7100000000000000000000000000000000000000000000000000000000600052603260045260246000fd5b90600052602060002001541015611463576040517f08c379a000000000000000000000000000000000000000000000000000000000815260040161145a9061336c565b60405180910390fd5b6000670de0b6b3a7640000836002015460648861148091906136c4565b61148a91906136f5565b61149491906136f5565b905061ea60816114a491906136c4565b90508034146114e8576040517f08c379a00000000000000000000000000000000000000000000000000000000081526004016114df9061334c565b60405180910390fd5b6115168360010160009054906101000a900473ffffffffffffffffffffffffffffffffffffffff1683610998565b506115468360010160009054906101000a900473ffffffffffffffffffffffffffffffffffffffff1633846109c5565b508260010160009054906101000a900473ffffffffffffffffffffffffffffffffffffffff1673ffffffffffffffffffffffffffffffffffffffff166108fc349081150290604051600060405180830381858888f193505050501580156115b1573d6000803e3d6000fd5b5081600560008560010160009054906101000a900473ffffffffffffffffffffffffffffffffffffffff1673ffffffffffffffffffffffffffffffffffffffff1673ffffffffffffffffffffffffffffffffffffffff168152602001908152602001600020888154811061164e577f4e487b7100000000000000000000000000000000000000000000000000000000600052603260045260246000fd5b906000526020600020016000828254611667919061374f565b9250508190555081600560003373ffffffffffffffffffffffffffffffffffffffff1673ffffffffffffffffffffffffffffffffffffffff16815260200190815260200160002088815481106116e6577f4e487b7100000000000000000000000000000000000000000000000000000000600052603260045260246000fd5b9060005260206000200160008282546116ff919061366e565b9250508190555042600660003373ffffffffffffffffffffffffffffffffffffffff1673ffffffffffffffffffffffffffffffffffffffff168152602001908152602001600020888154811061177e577f4e487b7100000000000000000000000000000000000000000000000000000000600052603260045260246000fd5b90600052602060002001819055507f16ebaf9794746650ad87ea883c4222782aa356d79f5e1a15a75d87362fda852887338560010160009054906101000a900473ffffffffffffffffffffffffffffffffffffffff1689426040516117e7959493929190613591565b60405180910390a150505050505050565b60606004805461180790613841565b80601f016020809104026020016040519081016040528092919081815260200182805461183390613841565b80156118805780601f1061185557610100808354040283529160200191611880565b820191906000526020600020905b81548152906001019060200180831161186357829003601f168201915b5050505050905090565b600080611895612238565b905060006118a38286611d3a565b9050838110156118e8576040517f08c379a00000000000000000000000000000000000000000000000000000000081526004016118df9061346c565b60405180910390fd5b6118f58286868403612240565b60019250505092915050565b60008061190c612238565b9050611919818585612497565b600191505092915050565b8060006007600083815260200190815260200160002090508060010160009054906101000a900473ffffffffffffffffffffffffffffffffffffffff1673ffffffffffffffffffffffffffffffffffffffff163373ffffffffffffffffffffffffffffffffffffffff1614156119cf576040517f08c379a00000000000000000000000000000000000000000000000000000000081526004016119c69061326c565b60405180910390fd5b6000600760008581526020019081526020016000209050600115158160030160009054906101000a900460ff16151514611a3e576040517f08c379a0000000000000000000000000000000000000000000000000000000008152600401611a359061330c565b60405180910390fd5b80600201543414611a84576040517f08c379a0000000000000000000000000000000000000000000000000000000008152600401611a7b906133ac565b60405180910390fd5b60008160010160009054906101000a900473ffffffffffffffffffffffffffffffffffffffff1690508073ffffffffffffffffffffffffffffffffffffffff166108fc349081150290604051600060405180830381858888f19350505050158015611af3573d6000803e3d6000fd5b506000600560008373ffffffffffffffffffffffffffffffffffffffff1673ffffffffffffffffffffffffffffffffffffffff1681526020019081526020016000208681548110611b6d577f4e487b7100000000000000000000000000000000000000000000000000000000600052603260045260246000fd5b9060005260206000200154905080600560003373ffffffffffffffffffffffffffffffffffffffff1673ffffffffffffffffffffffffffffffffffffffff1681526020019081526020016000208781548110611bf2577f4e487b7100000000000000000000000000000000000000000000000000000000600052603260045260246000fd5b906000526020600020016000828254611c0b919061366e565b925050819055506000600560008473ffffffffffffffffffffffffffffffffffffffff1673ffffffffffffffffffffffffffffffffffffffff1681526020019081526020016000208781548110611c8b577f4e487b7100000000000000000000000000000000000000000000000000000000600052603260045260246000fd5b9060005260206000200181905550611ca38282610998565b50611caf8233836109c5565b5060008360030160006101000a81548160ff0219169083151502179055507f4dbd8738e57e8d9c48fc1fa62ae57bc6b4d70f5adbcda17a1a915abd8a24992a86838560010160009054906101000a900473ffffffffffffffffffffffffffffffffffffffff168660020154604051611d2a94939291906134d0565b60405180910390a1505050505050565b6000600160008473ffffffffffffffffffffffffffffffffffffffff1673ffffffffffffffffffffffffffffffffffffffff16815260200190815260200160002060008373ffffffffffffffffffffffffffffffffffffffff1673ffffffffffffffffffffffffffffffffffffffff16815260200190815260200160002054905092915050565b8060006007600083815260200190815260200160002090508060010160009054906101000a900473ffffffffffffffffffffffffffffffffffffffff1673ffffffffffffffffffffffffffffffffffffffff163373ffffffffffffffffffffffffffffffffffffffff161415611e6c576040517f08c379a0000000000000000000000000000000000000000000000000000000008152600401611e639061326c565b60405180910390fd5b60006007600085815260200190815260200160002090506000600560003373ffffffffffffffffffffffffffffffffffffffff1673ffffffffffffffffffffffffffffffffffffffff1681526020019081526020016000208581548110611efc577f4e487b7100000000000000000000000000000000000000000000000000000000600052603260045260246000fd5b906000526020600020015411611f47576040517f08c379a0000000000000000000000000000000000000000000000000000000008152600401611f3e906133cc565b60405180910390fd5b6000600560003373ffffffffffffffffffffffffffffffffffffffff1673ffffffffffffffffffffffffffffffffffffffff1681526020019081526020016000208581548110611fc0577f4e487b7100000000000000000000000000000000000000000000000000000000600052603260045260246000fd5b90600052602060002001549050611fd73382610998565b50612007338360010160009054906101000a900473ffffffffffffffffffffffffffffffffffffffff16836109c5565b506000600560003373ffffffffffffffffffffffffffffffffffffffff1673ffffffffffffffffffffffffffffffffffffffff1681526020019081526020016000208681548110612081577f4e487b7100000000000000000000000000000000000000000000000000000000600052603260045260246000fd5b90600052602060002001819055506000600660003373ffffffffffffffffffffffffffffffffffffffff1673ffffffffffffffffffffffffffffffffffffffff1681526020019081526020016000208681548110612108577f4e487b7100000000000000000000000000000000000000000000000000000000600052603260045260246000fd5b906000526020600020018190555080600560008460010160009054906101000a900473ffffffffffffffffffffffffffffffffffffffff1673ffffffffffffffffffffffffffffffffffffffff1673ffffffffffffffffffffffffffffffffffffffff16815260200190815260200160002086815481106121b2577f4e487b7100000000000000000000000000000000000000000000000000000000600052603260045260246000fd5b9060005260206000200160008282546121cb919061366e565b925050819055507f7ec58b6544e4a49695b4ce003db2c62d2e4cb9f6836aa978aeb6b4863112459585338460010160009054906101000a900473ffffffffffffffffffffffffffffffffffffffff1660405161222993929190613515565b60405180910390a15050505050565b600033905090565b600073ffffffffffffffffffffffffffffffffffffffff168373ffffffffffffffffffffffffffffffffffffffff1614156122b0576040517f08c379a00000000000000000000000000000000000000000000000000000000081526004016122a7906133ec565b60405180910390fd5b600073ffffffffffffffffffffffffffffffffffffffff168273ffffffffffffffffffffffffffffffffffffffff161415612320576040517f08c379a0000000000000000000000000000000000000000000000000000000008152600401612317906131ac565b60405180910390fd5b80600160008573ffffffffffffffffffffffffffffffffffffffff1673ffffffffffffffffffffffffffffffffffffffff16815260200190815260200160002060008473ffffffffffffffffffffffffffffffffffffffff1673ffffffffffffffffffffffffffffffffffffffff168152602001908152602001600020819055508173ffffffffffffffffffffffffffffffffffffffff168373ffffffffffffffffffffffffffffffffffffffff167f8c5be1e5ebec7d5bd14f71427d1e84f3dd0314c0f7b2291e5b200ac8c7c3b925836040516123fe919061348c565b60405180910390a3505050565b60006124178484611d3a565b90507fffffffffffffffffffffffffffffffffffffffffffffffffffffffffffffffff81146124915781811015612483576040517f08c379a000000000000000000000000000000000000000000000000000000000815260040161247a906131cc565b60405180910390fd5b6124908484848403612240565b5b50505050565b600073ffffffffffffffffffffffffffffffffffffffff168373ffffffffffffffffffffffffffffffffffffffff161415612507576040517f08c379a00000000000000000000000000000000000000000000000000000000081526004016124fe9061338c565b60405180910390fd5b600073ffffffffffffffffffffffffffffffffffffffff168273ffffffffffffffffffffffffffffffffffffffff161415612577576040517f08c379a000000000000000000000000000000000000000000000000000000000815260040161256e9061318c565b60405180910390fd5b612582838383612718565b60008060008573ffffffffffffffffffffffffffffffffffffffff1673ffffffffffffffffffffffffffffffffffffffff16815260200190815260200160002054905081811015612608576040517f08c379a00000000000000000000000000000000000000000000000000000000081526004016125ff9061320c565b60405180910390fd5b8181036000808673ffffffffffffffffffffffffffffffffffffffff1673ffffffffffffffffffffffffffffffffffffffff16815260200190815260200160002081905550816000808573ffffffffffffffffffffffffffffffffffffffff1673ffffffffffffffffffffffffffffffffffffffff168152602001908152602001600020600082825461269b919061366e565b925050819055508273ffffffffffffffffffffffffffffffffffffffff168473ffffffffffffffffffffffffffffffffffffffff167fddf252ad1be2c89b69c2b068fc378daa952ba7f163c4a11628f55a4df523b3ef846040516126ff919061348c565b60405180910390a361271284848461271d565b50505050565b505050565b505050565b60008135905061273181613911565b92915050565b60008135905061274681613928565b92915050565b60006020828403121561275e57600080fd5b600061276c84828501612722565b91505092915050565b6000806040838503121561278857600080fd5b600061279685828601612722565b92505060206127a785828601612722565b9150509250929050565b6000806000606084860312156127c657600080fd5b60006127d486828701612722565b93505060206127e586828701612722565b92505060406127f686828701612737565b9150509250925092565b6000806040838503121561281357600080fd5b600061282185828601612722565b925050602061283285828601612737565b9150509250929050565b60006020828403121561284e57600080fd5b600061285c84828501612737565b91505092915050565b6000806040838503121561287857600080fd5b600061288685828601612737565b925050602061289785828601612722565b9150509250929050565b600080604083850312156128b457600080fd5b60006128c285828601612737565b92505060206128d385828601612737565b9150509250929050565b6128e6816137d8565b82525050565b6128f581613783565b82525050565b61290481613795565b82525050565b600061291582613652565b61291f818561365d565b935061292f81856020860161380e565b61293881613900565b840191505092915050565b600061295060238361365d565b91507f45524332303a207472616e7366657220746f20746865207a65726f206164647260008301527f65737300000000000000000000000000000000000000000000000000000000006020830152604082019050919050565b60006129b660228361365d565b91507f45524332303a20617070726f766520746f20746865207a65726f20616464726560008301527f73730000000000000000000000000000000000000000000000000000000000006020830152604082019050919050565b6000612a1c601d8361365d565b91507f45524332303a20696e73756666696369656e7420616c6c6f77616e63650000006000830152602082019050919050565b6000612a5c60148361365d565b91507f54656e616e74206973206e6f74206661756c74790000000000000000000000006000830152602082019050919050565b6000612a9c60268361365d565b91507f45524332303a207472616e7366657220616d6f756e742065786365656473206260008301527f616c616e636500000000000000000000000000000000000000000000000000006020830152604082019050919050565b6000612b0260298361365d565b91507f43616e6e6f74207061792072656e7420666f7220612070726f7065727479206e60008301527f6f742072656e74656400000000000000000000000000000000000000000000006020830152604082019050919050565b6000612b6860218361365d565b91507f4f6e6c79206f776e65722063616e207468726f77206f757420612074656e616e60008301527f74000000000000000000000000000000000000000000000000000000000000006020830152604082019050919050565b6000612bce60228361365d565b91507f4f776e65722063616e6e6f7420706572666f726d20746865206f70657261746960008301527f6f6e0000000000000000000000000000000000000000000000000000000000006020830152604082019050919050565b6000612c3460188361365d565b91507f496e636f727265637420616d6f756e74206f662072656e7400000000000000006000830152602082019050919050565b6000612c7460238361365d565b91507f4f6e6c79206f776e65722063616e207075742070726f7065727479206f6e207360008301527f616c6500000000000000000000000000000000000000000000000000000000006020830152604082019050919050565b6000612cda60118361365d565b91507f43616e6e6f742070617920302072656e740000000000000000000000000000006000830152602082019050919050565b6000612d1a60188361365d565b91507f52656e74206e6f7420696e2070726f7065722072616e676500000000000000006000830152602082019050919050565b6000612d5a60158361365d565b91507f50726f7065727479206e6f7420666f722073616c6500000000000000000000006000830152602082019050919050565b6000612d9a60168361365d565b91507f5061792072656e7420616674657220616e20686f7572000000000000000000006000830152602082019050919050565b6000612dda60148361365d565b91507f496e737566666963656e742073656375726974790000000000000000000000006000830152602082019050919050565b6000612e1a60288361365d565b91507f5468697320616d6f756e74206f662070726f70657274792063616e6e6f74206260008301527f652072656e7465640000000000000000000000000000000000000000000000006020830152604082019050919050565b6000612e8060258361365d565b91507f45524332303a207472616e736665722066726f6d20746865207a65726f20616460008301527f64726573730000000000000000000000000000000000000000000000000000006020830152604082019050919050565b6000612ee660198361365d565b91507f496e636f727265637420616d6f756e74206f662066756e6473000000000000006000830152602082019050919050565b6000612f2660218361365d565b91507f596f752068617665206e6f742072656e74656420746869732070726f7065727460008301527f79000000000000000000000000000000000000000000000000000000000000006020830152604082019050919050565b6000612f8c60248361365d565b91507f45524332303a20617070726f76652066726f6d20746865207a65726f2061646460008301527f72657373000000000000000000000000000000000000000000000000000000006020830152604082019050919050565b6000612ff260088361365d565b91507f43616c6c204275790000000000000000000000000000000000000000000000006000830152602082019050919050565b600061303260188361365d565b91507f50726f706572747920616c7265616479206f6e2073616c6500000000000000006000830152602082019050919050565b600061307260288361365d565b91507f54686973206164647265737320686173206e6f742072656e746564207468652060008301527f70726f70657274790000000000000000000000000000000000000000000000006020830152604082019050919050565b60006130d860258361365d565b91507f45524332303a2064656372656173656420616c6c6f77616e63652062656c6f7760008301527f207a65726f0000000000000000000000000000000000000000000000000000006020830152604082019050919050565b61313a816137c1565b82525050565b613149816137cb565b82525050565b600060208201905061316460008301846128fb565b92915050565b60006020820190508181036000830152613184818461290a565b905092915050565b600060208201905081810360008301526131a581612943565b9050919050565b600060208201905081810360008301526131c5816129a9565b9050919050565b600060208201905081810360008301526131e581612a0f565b9050919050565b6000602082019050818103600083015261320581612a4f565b9050919050565b6000602082019050818103600083015261322581612a8f565b9050919050565b6000602082019050818103600083015261324581612af5565b9050919050565b6000602082019050818103600083015261326581612b5b565b9050919050565b6000602082019050818103600083015261328581612bc1565b9050919050565b600060208201905081810360008301526132a581612c27565b9050919050565b600060208201905081810360008301526132c581612c67565b9050919050565b600060208201905081810360008301526132e581612ccd565b9050919050565b6000602082019050818103600083015261330581612d0d565b9050919050565b6000602082019050818103600083015261332581612d4d565b9050919050565b6000602082019050818103600083015261334581612d8d565b9050919050565b6000602082019050818103600083015261336581612dcd565b9050919050565b6000602082019050818103600083015261338581612e0d565b9050919050565b600060208201905081810360008301526133a581612e73565b9050919050565b600060208201905081810360008301526133c581612ed9565b9050919050565b600060208201905081810360008301526133e581612f19565b9050919050565b6000602082019050818103600083015261340581612f7f565b9050919050565b6000602082019050818103600083015261342581612fe5565b9050919050565b6000602082019050818103600083015261344581613025565b9050919050565b6000602082019050818103600083015261346581613065565b9050919050565b60006020820190508181036000830152613485816130cb565b9050919050565b60006020820190506134a16000830184613131565b92915050565b60006040820190506134bc6000830185613131565b6134c960208301846128ec565b9392505050565b60006080820190506134e56000830187613131565b6134f260208301866128dd565b6134ff60408301856128ec565b61350c6060830184613131565b95945050505050565b600060608201905061352a6000830186613131565b61353760208301856128ec565b61354460408301846128ec565b949350505050565b60006080820190506135616000830187613131565b61356e60208301866128ec565b61357b60408301856128ec565b6135886060830184613131565b95945050505050565b600060a0820190506135a66000830188613131565b6135b360208301876128ec565b6135c060408301866128ec565b6135cd6060830185613131565b6135da6080830184613131565b9695505050505050565b600060a0820190506135f96000830188613131565b61360660208301876128ec565b6136136040830186613131565b6136206060830185613131565b61362d60808301846128fb565b9695505050505050565b600060208201905061364c6000830184613140565b92915050565b600081519050919050565b600082825260208201905092915050565b6000613679826137c1565b9150613684836137c1565b9250827fffffffffffffffffffffffffffffffffffffffffffffffffffffffffffffffff038211156136b9576136b8613873565b5b828201905092915050565b60006136cf826137c1565b91506136da836137c1565b9250826136ea576136e96138a2565b5b828204905092915050565b6000613700826137c1565b915061370b836137c1565b9250817fffffffffffffffffffffffffffffffffffffffffffffffffffffffffffffffff048311821515161561374457613743613873565b5b828202905092915050565b600061375a826137c1565b9150613765836137c1565b92508282101561377857613777613873565b5b828203905092915050565b600061378e826137a1565b9050919050565b60008115159050919050565b600073ffffffffffffffffffffffffffffffffffffffff82169050919050565b6000819050919050565b600060ff82169050919050565b60006137e3826137ea565b9050919050565b60006137f5826137fc565b9050919050565b6000613807826137a1565b9050919050565b60005b8381101561382c578082015181840152602081019050613811565b8381111561383b576000848401525b50505050565b6000600282049050600182168061385957607f821691505b6020821081141561386d5761386c6138d1565b5b50919050565b7f4e487b7100000000000000000000000000000000000000000000000000000000600052601160045260246000fd5b7f4e487b7100000000000000000000000000000000000000000000000000000000600052601260045260246000fd5b7f4e487b7100000000000000000000000000000000000000000000000000000000600052602260045260246000fd5b6000601f19601f8301169050919050565b61391a81613783565b811461392557600080fd5b50565b613931816137c1565b811461393c57600080fd5b5056fea26469706673582212206687b067d6c27084325bf8e699274ca0a0a793e58b41ebbd2b7a339ea7d58d4364736f6c63430008000033",
  "immutableReferences": {},
  "source": "/*\n    1. Make properties as Erc20: new tokens fro each property\n    2. Users can buy,sell,rent\n    3. Owners will receive rent from tenants at month's end\n*/\n\n//1.Check array in prop_balance\n//2. POst prpoerty on sale(post)\n// 3 . take security deposit from tenant\n\n\npragma solidity ^0.8.0;\nimport \"@openzeppelin/contracts/token/ERC20/ERC20.sol\";\n\ncontract RealEstate is ERC20{\n\n    struct Property{\n\n        uint id;\n        address owner;\n        uint price;\n        bool onSale;\n\n        \n\n    }\n\n    \n\n    event PropertyCreated(\n\n        uint id,\n        address owner,\n        uint price,\n        uint balance,\n        bool onSale\n    );\n\n\n    event BuyEvent(\n\n        uint id,\n        address from,\n        address to,\n        uint price\n    );\n\n    event RentEvent(\n\n        uint id,\n        address tenat,\n        address owner,\n        uint percent,\n        uint time\n    );\n\n    event DeRentEvent(\n\n        uint id,\n        address tenant,\n        address owner\n    );\n\n    event PayRentEvent(\n\n        uint id,\n        address tenant,\n        address owner,\n        uint rent\n    );\n\n    event ThrowTenantEvent(\n\n        uint id,\n        address tenant,\n        address owner\n    );\n\n    event PostEvent(\n\n        uint id,\n        address owner\n    );\n    \n    \n    mapping(address=>uint[]) prop_balance;\n    mapping(address=>uint[]) prop_time;\n    mapping(uint=>Property) prop_list;\n\n    modifier notOwner(uint id) {\n\n        Property storage p = prop_list[id];\n\n        require(msg.sender!=p.owner,'Owner cannot perform the operation');\n        _;\n    }\n\n    constructor(uint properties)  ERC20(\"Property\",\"PPT\"){\n        \n\n        for(uint i=0;i<properties;i++){\n\n            Property memory p = Property(i,msg.sender,(i+1),false);\n\n            prop_list[i]=p;\n\n            _mint(msg.sender,p.price*10**18);\n\n            prop_balance[msg.sender][i]=p.price*10**18;\n\n\n            emit PropertyCreated(p.id,p.owner,p.price,balanceOf(msg.sender),false);\n\n        }\n    }\n\n    function get_property(uint id) public returns(uint){\n\n        Property memory p = prop_list[id];\n\n        emit PropertyCreated(id,p.owner,p.price, balanceOf(p.owner),false);\n\n        return p.price;\n    }\n\n    function buy(uint id) public payable notOwner(id){\n\n        Property storage p = prop_list[id];\n\n\n        require(p.onSale==true,'Property not for sale');\n        require(msg.value==p.price,'Incorrect amount of funds');\n\n        address payable prev_owner = payable(p.owner);\n\n        prev_owner.transfer(msg.value); //money sent\n\n        uint balance = prop_balance[prev_owner][id];\n\n        prop_balance[msg.sender][id]+=balance;\n\n        prop_balance[prev_owner][id]=0;\n\n        approve(prev_owner,balance);\n        transferFrom(prev_owner, msg.sender,balance);\n\n        p.onSale=false;\n\n        emit BuyEvent(id,prev_owner,p.owner,p.price);\n\n\n    }\n\n    \n\n    function rent(uint id,uint percent) public payable notOwner(id){\n\n        Property storage  p = prop_list[id];\n\n        \n        require(percent!=100,'Call Buy');\n        require(percent>0 && percent<=99,'Rent not in proper range');\n\n        uint tokens = (percent/100) *p.price* 10**18;\n\n        require(prop_balance[p.owner][id]>=tokens,'This amount of property cannot be rented');\n\n        uint security  =  (percent/100)*p.price*10**18;\n        security = (security)/60000;\n\n        require(msg.value==security,'Insufficent security');\n\n        approve(p.owner,tokens);\n        transferFrom(p.owner,msg.sender,tokens);\n        payable(p.owner).transfer(msg.value);\n\n        prop_balance[p.owner][id]-=tokens;\n        prop_balance[msg.sender][id]+=tokens;\n\n        prop_time[msg.sender][id] = block.timestamp;\n\n        emit RentEvent(id,msg.sender,p.owner,percent,block.timestamp);\n    }\n\n    function de_rent(uint id) public notOwner(id) {\n\n        Property storage p = prop_list[id];\n\n        require(prop_balance[msg.sender][id]>0,'You have not rented this property');\n\n        uint balance = prop_balance[msg.sender][id];\n        approve(msg.sender,balance);\n        transferFrom(msg.sender,p.owner, balance);\n\n        \n        prop_balance[msg.sender][id]=0;\n        prop_time[msg.sender][id]=0;\n        prop_balance[p.owner][id]+=balance;\n\n        emit DeRentEvent(id,msg.sender,p.owner);\n    }\n\n    function pay_rent(uint id) public payable notOwner(id){\n\n        Property storage p = prop_list[id];\n\n        require(prop_balance[msg.sender][id]>0,'Cannot pay rent for a property not rented');\n\n        uint time_elapsed = (block.timestamp - prop_time[msg.sender][id])/60000;  //hour\n\n        require(time_elapsed>=1,'Pay rent after an hour');\n\n        uint rent = prop_balance[msg.sender][id]/(10**18);\n        rent*=time_elapsed;\n\n        require(rent>0,'Cannot pay 0 rent');\n\n\n        require(msg.value==rent,'Incorrect amount of rent');\n\n        payable(p.owner).transfer(msg.value);\n\n        prop_time[msg.sender][id]=block.timestamp;\n\n        emit PayRentEvent(id,msg.sender,p.owner,msg.value);\n\n    }\n\n    function throw_faulty_tenant(uint id,address tenant)  public {\n\n        Property storage p = prop_list[id];\n\n        require(p.owner==msg.sender,'Only owner can throw out a tenant');\n        uint time_elapsed = (block.timestamp - prop_time[tenant][id])/6000;  //hour\n\n        require(time_elapsed>=1,'Tenant is not faulty');\n\n        require(prop_balance[tenant][id]>0,'This address has not rented the property');\n\n        uint balance = prop_balance[tenant][id];\n        approve(tenant,balance);\n        transferFrom(tenant,p.owner,balance);\n\n        prop_balance[tenant][id]=0;\n        prop_balance[p.owner][id]+=balance;\n        \n        emit ThrowTenantEvent(id,tenant,msg.sender);\n\n        \n\n        \n\n       \n    }  \n\n    function postProperty(uint id) public {\n\n        Property storage p = prop_list[id];\n        require(p.owner==msg.sender,'Only owner can put property on sale');\n        require(p.onSale==false,'Property already on sale');\n\n        p.onSale=true;\n\n        emit PostEvent(id,p.owner);\n    }\n}",
  "sourcePath": "/home/alabhinav/Documents/solidity/RealEstate/src/contracts/RealEstate.sol",
  "compiler": {
    "name": "solc",
    "version": "0.8.0+commit.c7dfd78e.Emscripten.clang"
  },
  "schemaVersion": "3.4.8",
  "updatedAt": "2022-07-16T08:29:28.175Z",
  "devdoc": {
    "kind": "dev",
    "methods": {
      "allowance(address,address)": {
        "details": "See {IERC20-allowance}."
      },
      "approve(address,uint256)": {
        "details": "See {IERC20-approve}. NOTE: If `amount` is the maximum `uint256`, the allowance is not updated on `transferFrom`. This is semantically equivalent to an infinite approval. Requirements: - `spender` cannot be the zero address."
      },
      "balanceOf(address)": {
        "details": "See {IERC20-balanceOf}."
      },
      "decimals()": {
        "details": "Returns the number of decimals used to get its user representation. For example, if `decimals` equals `2`, a balance of `505` tokens should be displayed to a user as `5.05` (`505 / 10 ** 2`). Tokens usually opt for a value of 18, imitating the relationship between Ether and Wei. This is the value {ERC20} uses, unless this function is overridden; NOTE: This information is only used for _display_ purposes: it in no way affects any of the arithmetic of the contract, including {IERC20-balanceOf} and {IERC20-transfer}."
      },
      "decreaseAllowance(address,uint256)": {
        "details": "Atomically decreases the allowance granted to `spender` by the caller. This is an alternative to {approve} that can be used as a mitigation for problems described in {IERC20-approve}. Emits an {Approval} event indicating the updated allowance. Requirements: - `spender` cannot be the zero address. - `spender` must have allowance for the caller of at least `subtractedValue`."
      },
      "increaseAllowance(address,uint256)": {
        "details": "Atomically increases the allowance granted to `spender` by the caller. This is an alternative to {approve} that can be used as a mitigation for problems described in {IERC20-approve}. Emits an {Approval} event indicating the updated allowance. Requirements: - `spender` cannot be the zero address."
      },
      "name()": {
        "details": "Returns the name of the token."
      },
      "symbol()": {
        "details": "Returns the symbol of the token, usually a shorter version of the name."
      },
      "totalSupply()": {
        "details": "See {IERC20-totalSupply}."
      },
      "transfer(address,uint256)": {
        "details": "See {IERC20-transfer}. Requirements: - `to` cannot be the zero address. - the caller must have a balance of at least `amount`."
      },
      "transferFrom(address,address,uint256)": {
        "details": "See {IERC20-transferFrom}. Emits an {Approval} event indicating the updated allowance. This is not required by the EIP. See the note at the beginning of {ERC20}. NOTE: Does not update the allowance if the current allowance is the maximum `uint256`. Requirements: - `from` and `to` cannot be the zero address. - `from` must have a balance of at least `amount`. - the caller must have allowance for ``from``'s tokens of at least `amount`."
      }
    },
    "version": 1
  },
  "userdoc": {
    "kind": "user",
    "methods": {},
    "version": 1
  }
}