{
  "contractName": "RealEstate",
  "abi": [
    {
      "inputs": [
        {
          "internalType": "uint256",
          "name": "properties",
          "type": "uint256"
        }
      ],
      "stateMutability": "nonpayable",
      "type": "constructor"
    },
    {
      "anonymous": false,
      "inputs": [
        {
          "indexed": true,
          "internalType": "address",
          "name": "owner",
          "type": "address"
        },
        {
          "indexed": true,
          "internalType": "address",
          "name": "spender",
          "type": "address"
        },
        {
          "indexed": false,
          "internalType": "uint256",
          "name": "value",
          "type": "uint256"
        }
      ],
      "name": "Approval",
      "type": "event"
    },
    {
      "anonymous": false,
      "inputs": [
        {
          "indexed": false,
          "internalType": "uint256",
          "name": "id",
          "type": "uint256"
        },
        {
          "indexed": false,
          "internalType": "address",
          "name": "owner",
          "type": "address"
        },
        {
          "indexed": false,
          "internalType": "uint256",
          "name": "price",
          "type": "uint256"
        },
        {
          "indexed": false,
          "internalType": "uint256",
          "name": "balance",
          "type": "uint256"
        }
      ],
      "name": "PropertyCreated",
      "type": "event"
    },
    {
      "anonymous": false,
      "inputs": [
        {
          "indexed": true,
          "internalType": "address",
          "name": "from",
          "type": "address"
        },
        {
          "indexed": true,
          "internalType": "address",
          "name": "to",
          "type": "address"
        },
        {
          "indexed": false,
          "internalType": "uint256",
          "name": "value",
          "type": "uint256"
        }
      ],
      "name": "Transfer",
      "type": "event"
    },
    {
      "inputs": [
        {
          "internalType": "address",
          "name": "owner",
          "type": "address"
        },
        {
          "internalType": "address",
          "name": "spender",
          "type": "address"
        }
      ],
      "name": "allowance",
      "outputs": [
        {
          "internalType": "uint256",
          "name": "",
          "type": "uint256"
        }
      ],
      "stateMutability": "view",
      "type": "function",
      "constant": true
    },
    {
      "inputs": [
        {
          "internalType": "address",
          "name": "spender",
          "type": "address"
        },
        {
          "internalType": "uint256",
          "name": "amount",
          "type": "uint256"
        }
      ],
      "name": "approve",
      "outputs": [
        {
          "internalType": "bool",
          "name": "",
          "type": "bool"
        }
      ],
      "stateMutability": "nonpayable",
      "type": "function"
    },
    {
      "inputs": [
        {
          "internalType": "address",
          "name": "account",
          "type": "address"
        }
      ],
      "name": "balanceOf",
      "outputs": [
        {
          "internalType": "uint256",
          "name": "",
          "type": "uint256"
        }
      ],
      "stateMutability": "view",
      "type": "function",
      "constant": true
    },
    {
      "inputs": [],
      "name": "decimals",
      "outputs": [
        {
          "internalType": "uint8",
          "name": "",
          "type": "uint8"
        }
      ],
      "stateMutability": "view",
      "type": "function",
      "constant": true
    },
    {
      "inputs": [
        {
          "internalType": "address",
          "name": "spender",
          "type": "address"
        },
        {
          "internalType": "uint256",
          "name": "subtractedValue",
          "type": "uint256"
        }
      ],
      "name": "decreaseAllowance",
      "outputs": [
        {
          "internalType": "bool",
          "name": "",
          "type": "bool"
        }
      ],
      "stateMutability": "nonpayable",
      "type": "function"
    },
    {
      "inputs": [
        {
          "internalType": "address",
          "name": "spender",
          "type": "address"
        },
        {
          "internalType": "uint256",
          "name": "addedValue",
          "type": "uint256"
        }
      ],
      "name": "increaseAllowance",
      "outputs": [
        {
          "internalType": "bool",
          "name": "",
          "type": "bool"
        }
      ],
      "stateMutability": "nonpayable",
      "type": "function"
    },
    {
      "inputs": [],
      "name": "name",
      "outputs": [
        {
          "internalType": "string",
          "name": "",
          "type": "string"
        }
      ],
      "stateMutability": "view",
      "type": "function",
      "constant": true
    },
    {
      "inputs": [],
      "name": "symbol",
      "outputs": [
        {
          "internalType": "string",
          "name": "",
          "type": "string"
        }
      ],
      "stateMutability": "view",
      "type": "function",
      "constant": true
    },
    {
      "inputs": [],
      "name": "totalSupply",
      "outputs": [
        {
          "internalType": "uint256",
          "name": "",
          "type": "uint256"
        }
      ],
      "stateMutability": "view",
      "type": "function",
      "constant": true
    },
    {
      "inputs": [
        {
          "internalType": "address",
          "name": "to",
          "type": "address"
        },
        {
          "internalType": "uint256",
          "name": "amount",
          "type": "uint256"
        }
      ],
      "name": "transfer",
      "outputs": [
        {
          "internalType": "bool",
          "name": "",
          "type": "bool"
        }
      ],
      "stateMutability": "nonpayable",
      "type": "function"
    },
    {
      "inputs": [
        {
          "internalType": "address",
          "name": "from",
          "type": "address"
        },
        {
          "internalType": "address",
          "name": "to",
          "type": "address"
        },
        {
          "internalType": "uint256",
          "name": "amount",
          "type": "uint256"
        }
      ],
      "name": "transferFrom",
      "outputs": [
        {
          "internalType": "bool",
          "name": "",
          "type": "bool"
        }
      ],
      "stateMutability": "nonpayable",
      "type": "function"
    },
    {
      "inputs": [
        {
          "internalType": "uint256",
          "name": "id",
          "type": "uint256"
        }
      ],
      "name": "buy",
      "outputs": [],
      "stateMutability": "payable",
      "type": "function",
      "payable": true
    },
    {
      "inputs": [],
      "name": "sell",
      "outputs": [],
      "stateMutability": "nonpayable",
      "type": "function"
    },
    {
      "inputs": [],
      "name": "rent",
      "outputs": [],
      "stateMutability": "nonpayable",
      "type": "function"
    },
    {
      "inputs": [],
      "name": "de_rent",
      "outputs": [],
      "stateMutability": "nonpayable",
      "type": "function"
    }
  ],
  "bytecode": "0x60806040523480156200001157600080fd5b5060405162001d6838038062001d68833981810160405281019062000037919062000583565b6040518060400160405280600881526020017f50726f70657274790000000000000000000000000000000000000000000000008152506040518060400160405280600381526020017f50505400000000000000000000000000000000000000000000000000000000008152508160039080519060200190620000bb929190620004bc565b508060049080519060200190620000d4929190620004bc565b50505060008167ffffffffffffffff8111156200011a577f4e487b7100000000000000000000000000000000000000000000000000000000600052604160045260246000fd5b604051908082528060200260200182016040528015620001495781602001602082028036833780820191505090505b50905060005b82811015620002e857600060405180606001604052808381526020013373ffffffffffffffffffffffffffffffffffffffff168152602001600184620001969190620006b0565b815250905080600660008481526020019081526020016000206000820151816000015560208201518160010160006101000a81548173ffffffffffffffffffffffffffffffffffffffff021916908373ffffffffffffffffffffffffffffffffffffffff160217905550604082015181600201559050506200022733670de0b6b3a7640000620002f160201b60201c565b670de0b6b3a76400008383815181106200026a577f4e487b7100000000000000000000000000000000000000000000000000000000600052603260045260246000fd5b6020026020010181815250507f93fe89e0e096d6ca3352aa4b22b4eab57b3b27b1001981025a328332157a772c816000015182602001518360400151620002b7336200046a60201b60201c565b604051620002c9949392919062000652565b60405180910390a1508080620002df9062000781565b9150506200014f565b50505062000847565b600073ffffffffffffffffffffffffffffffffffffffff168273ffffffffffffffffffffffffffffffffffffffff16141562000364576040517f08c379a00000000000000000000000000000000000000000000000000000000081526004016200035b9062000613565b60405180910390fd5b6200037860008383620004b260201b60201c565b80600260008282546200038c9190620006b0565b92505081905550806000808473ffffffffffffffffffffffffffffffffffffffff1673ffffffffffffffffffffffffffffffffffffffff1681526020019081526020016000206000828254620003e39190620006b0565b925050819055508173ffffffffffffffffffffffffffffffffffffffff16600073ffffffffffffffffffffffffffffffffffffffff167fddf252ad1be2c89b69c2b068fc378daa952ba7f163c4a11628f55a4df523b3ef836040516200044a919062000635565b60405180910390a36200046660008383620004b760201b60201c565b5050565b60008060008373ffffffffffffffffffffffffffffffffffffffff1673ffffffffffffffffffffffffffffffffffffffff168152602001908152602001600020549050919050565b505050565b505050565b828054620004ca906200074b565b90600052602060002090601f016020900481019282620004ee57600085556200053a565b82601f106200050957805160ff19168380011785556200053a565b828001600101855582156200053a579182015b82811115620005395782518255916020019190600101906200051c565b5b5090506200054991906200054d565b5090565b5b80821115620005685760008160009055506001016200054e565b5090565b6000815190506200057d816200082d565b92915050565b6000602082840312156200059657600080fd5b6000620005a6848285016200056c565b91505092915050565b620005ba816200070d565b82525050565b6000620005cf601f836200069f565b91507f45524332303a206d696e7420746f20746865207a65726f2061646472657373006000830152602082019050919050565b6200060d8162000741565b82525050565b600060208201905081810360008301526200062e81620005c0565b9050919050565b60006020820190506200064c600083018462000602565b92915050565b600060808201905062000669600083018762000602565b620006786020830186620005af565b62000687604083018562000602565b62000696606083018462000602565b95945050505050565b600082825260208201905092915050565b6000620006bd8262000741565b9150620006ca8362000741565b9250827fffffffffffffffffffffffffffffffffffffffffffffffffffffffffffffffff03821115620007025762000701620007cf565b5b828201905092915050565b60006200071a8262000721565b9050919050565b600073ffffffffffffffffffffffffffffffffffffffff82169050919050565b6000819050919050565b600060028204905060018216806200076457607f821691505b602082108114156200077b576200077a620007fe565b5b50919050565b60006200078e8262000741565b91507fffffffffffffffffffffffffffffffffffffffffffffffffffffffffffffffff821415620007c457620007c3620007cf565b5b600182019050919050565b7f4e487b7100000000000000000000000000000000000000000000000000000000600052601160045260246000fd5b7f4e487b7100000000000000000000000000000000000000000000000000000000600052602260045260246000fd5b620008388162000741565b81146200084457600080fd5b50565b61151180620008576000396000f3fe6080604052600436106100e85760003560e01c806370a082311161008a578063a9059cbb11610059578063a9059cbb146102f8578063d96a094a14610335578063dd62ed3e14610351578063eae0a98d1461038e576100e8565b806370a082311461023c57806382996d9f1461027957806395d89b4114610290578063a457c2d7146102bb576100e8565b806323b872dd116100c657806323b872dd14610180578063313ce567146101bd57806339509351146101e85780634571007414610225576100e8565b806306fdde03146100ed578063095ea7b31461011857806318160ddd14610155575b600080fd5b3480156100f957600080fd5b506101026103a5565b60405161010f919061119a565b60405180910390f35b34801561012457600080fd5b5061013f600480360381019061013a9190610d90565b610437565b60405161014c919061117f565b60405180910390f35b34801561016157600080fd5b5061016a61045a565b60405161017791906112dc565b60405180910390f35b34801561018c57600080fd5b506101a760048036038101906101a29190610d41565b610464565b6040516101b4919061117f565b60405180910390f35b3480156101c957600080fd5b506101d2610493565b6040516101df91906112f7565b60405180910390f35b3480156101f457600080fd5b5061020f600480360381019061020a9190610d90565b61049c565b60405161021c919061117f565b60405180910390f35b34801561023157600080fd5b5061023a6104d3565b005b34801561024857600080fd5b50610263600480360381019061025e9190610cdc565b6104d5565b60405161027091906112dc565b60405180910390f35b34801561028557600080fd5b5061028e61051d565b005b34801561029c57600080fd5b506102a561051f565b6040516102b2919061119a565b60405180910390f35b3480156102c757600080fd5b506102e260048036038101906102dd9190610d90565b6105b1565b6040516102ef919061117f565b60405180910390f35b34801561030457600080fd5b5061031f600480360381019061031a9190610d90565b610628565b60405161032c919061117f565b60405180910390f35b61034f600480360381019061034a9190610dcc565b61064b565b005b34801561035d57600080fd5b5061037860048036038101906103739190610d05565b61073f565b60405161038591906112dc565b60405180910390f35b34801561039a57600080fd5b506103a36107c6565b005b6060600380546103b49061140c565b80601f01602080910402602001604051908101604052809291908181526020018280546103e09061140c565b801561042d5780601f106104025761010080835404028352916020019161042d565b820191906000526020600020905b81548152906001019060200180831161041057829003601f168201915b5050505050905090565b6000806104426107c8565b905061044f8185856107d0565b600191505092915050565b6000600254905090565b60008061046f6107c8565b905061047c85828561099b565b610487858585610a27565b60019150509392505050565b60006012905090565b6000806104a76107c8565b90506104c88185856104b9858961073f565b6104c3919061132e565b6107d0565b600191505092915050565b565b60008060008373ffffffffffffffffffffffffffffffffffffffff1673ffffffffffffffffffffffffffffffffffffffff168152602001908152602001600020549050919050565b565b60606004805461052e9061140c565b80601f016020809104026020016040519081016040528092919081815260200182805461055a9061140c565b80156105a75780601f1061057c576101008083540402835291602001916105a7565b820191906000526020600020905b81548152906001019060200180831161058a57829003601f168201915b5050505050905090565b6000806105bc6107c8565b905060006105ca828661073f565b90508381101561060f576040517f08c379a00000000000000000000000000000000000000000000000000000000081526004016106069061129c565b60405180910390fd5b61061c82868684036107d0565b60019250505092915050565b6000806106336107c8565b9050610640818585610a27565b600191505092915050565b60006006600083815260200190815260200160002090508060010160009054906101000a900473ffffffffffffffffffffffffffffffffffffffff1673ffffffffffffffffffffffffffffffffffffffff163373ffffffffffffffffffffffffffffffffffffffff1614156106f5576040517f08c379a00000000000000000000000000000000000000000000000000000000081526004016106ec906112bc565b60405180910390fd5b8060020154341461073b576040517f08c379a00000000000000000000000000000000000000000000000000000000081526004016107329061125c565b60405180910390fd5b5050565b6000600160008473ffffffffffffffffffffffffffffffffffffffff1673ffffffffffffffffffffffffffffffffffffffff16815260200190815260200160002060008373ffffffffffffffffffffffffffffffffffffffff1673ffffffffffffffffffffffffffffffffffffffff16815260200190815260200160002054905092915050565b565b600033905090565b600073ffffffffffffffffffffffffffffffffffffffff168373ffffffffffffffffffffffffffffffffffffffff161415610840576040517f08c379a00000000000000000000000000000000000000000000000000000000081526004016108379061127c565b60405180910390fd5b600073ffffffffffffffffffffffffffffffffffffffff168273ffffffffffffffffffffffffffffffffffffffff1614156108b0576040517f08c379a00000000000000000000000000000000000000000000000000000000081526004016108a7906111dc565b60405180910390fd5b80600160008573ffffffffffffffffffffffffffffffffffffffff1673ffffffffffffffffffffffffffffffffffffffff16815260200190815260200160002060008473ffffffffffffffffffffffffffffffffffffffff1673ffffffffffffffffffffffffffffffffffffffff168152602001908152602001600020819055508173ffffffffffffffffffffffffffffffffffffffff168373ffffffffffffffffffffffffffffffffffffffff167f8c5be1e5ebec7d5bd14f71427d1e84f3dd0314c0f7b2291e5b200ac8c7c3b9258360405161098e91906112dc565b60405180910390a3505050565b60006109a7848461073f565b90507fffffffffffffffffffffffffffffffffffffffffffffffffffffffffffffffff8114610a215781811015610a13576040517f08c379a0000000000000000000000000000000000000000000000000000000008152600401610a0a906111fc565b60405180910390fd5b610a2084848484036107d0565b5b50505050565b600073ffffffffffffffffffffffffffffffffffffffff168373ffffffffffffffffffffffffffffffffffffffff161415610a97576040517f08c379a0000000000000000000000000000000000000000000000000000000008152600401610a8e9061123c565b60405180910390fd5b600073ffffffffffffffffffffffffffffffffffffffff168273ffffffffffffffffffffffffffffffffffffffff161415610b07576040517f08c379a0000000000000000000000000000000000000000000000000000000008152600401610afe906111bc565b60405180910390fd5b610b12838383610ca8565b60008060008573ffffffffffffffffffffffffffffffffffffffff1673ffffffffffffffffffffffffffffffffffffffff16815260200190815260200160002054905081811015610b98576040517f08c379a0000000000000000000000000000000000000000000000000000000008152600401610b8f9061121c565b60405180910390fd5b8181036000808673ffffffffffffffffffffffffffffffffffffffff1673ffffffffffffffffffffffffffffffffffffffff16815260200190815260200160002081905550816000808573ffffffffffffffffffffffffffffffffffffffff1673ffffffffffffffffffffffffffffffffffffffff1681526020019081526020016000206000828254610c2b919061132e565b925050819055508273ffffffffffffffffffffffffffffffffffffffff168473ffffffffffffffffffffffffffffffffffffffff167fddf252ad1be2c89b69c2b068fc378daa952ba7f163c4a11628f55a4df523b3ef84604051610c8f91906112dc565b60405180910390a3610ca2848484610cad565b50505050565b505050565b505050565b600081359050610cc1816114ad565b92915050565b600081359050610cd6816114c4565b92915050565b600060208284031215610cee57600080fd5b6000610cfc84828501610cb2565b91505092915050565b60008060408385031215610d1857600080fd5b6000610d2685828601610cb2565b9250506020610d3785828601610cb2565b9150509250929050565b600080600060608486031215610d5657600080fd5b6000610d6486828701610cb2565b9350506020610d7586828701610cb2565b9250506040610d8686828701610cc7565b9150509250925092565b60008060408385031215610da357600080fd5b6000610db185828601610cb2565b9250506020610dc285828601610cc7565b9150509250929050565b600060208284031215610dde57600080fd5b6000610dec84828501610cc7565b91505092915050565b610dfe81611396565b82525050565b6000610e0f82611312565b610e19818561131d565b9350610e298185602086016113d9565b610e328161149c565b840191505092915050565b6000610e4a60238361131d565b91507f45524332303a207472616e7366657220746f20746865207a65726f206164647260008301527f65737300000000000000000000000000000000000000000000000000000000006020830152604082019050919050565b6000610eb060228361131d565b91507f45524332303a20617070726f766520746f20746865207a65726f20616464726560008301527f73730000000000000000000000000000000000000000000000000000000000006020830152604082019050919050565b6000610f16601d8361131d565b91507f45524332303a20696e73756666696369656e7420616c6c6f77616e63650000006000830152602082019050919050565b6000610f5660268361131d565b91507f45524332303a207472616e7366657220616d6f756e742065786365656473206260008301527f616c616e636500000000000000000000000000000000000000000000000000006020830152604082019050919050565b6000610fbc60258361131d565b91507f45524332303a207472616e736665722066726f6d20746865207a65726f20616460008301527f64726573730000000000000000000000000000000000000000000000000000006020830152604082019050919050565b600061102260198361131d565b91507f496e636f727265637420616d6f756e74206f662066756e6473000000000000006000830152602082019050919050565b600061106260248361131d565b91507f45524332303a20617070726f76652066726f6d20746865207a65726f2061646460008301527f72657373000000000000000000000000000000000000000000000000000000006020830152604082019050919050565b60006110c860258361131d565b91507f45524332303a2064656372656173656420616c6c6f77616e63652062656c6f7760008301527f207a65726f0000000000000000000000000000000000000000000000000000006020830152604082019050919050565b600061112e60108361131d565b91507f416c726561647920616e206f776e6572000000000000000000000000000000006000830152602082019050919050565b61116a816113c2565b82525050565b611179816113cc565b82525050565b60006020820190506111946000830184610df5565b92915050565b600060208201905081810360008301526111b48184610e04565b905092915050565b600060208201905081810360008301526111d581610e3d565b9050919050565b600060208201905081810360008301526111f581610ea3565b9050919050565b6000602082019050818103600083015261121581610f09565b9050919050565b6000602082019050818103600083015261123581610f49565b9050919050565b6000602082019050818103600083015261125581610faf565b9050919050565b6000602082019050818103600083015261127581611015565b9050919050565b6000602082019050818103600083015261129581611055565b9050919050565b600060208201905081810360008301526112b5816110bb565b9050919050565b600060208201905081810360008301526112d581611121565b9050919050565b60006020820190506112f16000830184611161565b92915050565b600060208201905061130c6000830184611170565b92915050565b600081519050919050565b600082825260208201905092915050565b6000611339826113c2565b9150611344836113c2565b9250827fffffffffffffffffffffffffffffffffffffffffffffffffffffffffffffffff038211156113795761137861143e565b5b828201905092915050565b600061138f826113a2565b9050919050565b60008115159050919050565b600073ffffffffffffffffffffffffffffffffffffffff82169050919050565b6000819050919050565b600060ff82169050919050565b60005b838110156113f75780820151818401526020810190506113dc565b83811115611406576000848401525b50505050565b6000600282049050600182168061142457607f821691505b602082108114156114385761143761146d565b5b50919050565b7f4e487b7100000000000000000000000000000000000000000000000000000000600052601160045260246000fd5b7f4e487b7100000000000000000000000000000000000000000000000000000000600052602260045260246000fd5b6000601f19601f8301169050919050565b6114b681611384565b81146114c157600080fd5b50565b6114cd816113c2565b81146114d857600080fd5b5056fea26469706673582212204cf85fbb1c0b856ffa0a94b1c36ce528c1e673bc8adf9332d20a40d8209a4f3564736f6c63430008000033",
  "immutableReferences": {},
  "source": "/*\n    1. Make properties as Erc20: new tokens fro each property\n    2. Users can buy,sell,rent\n    3. Owners will receive rent from tenants at month's end\n*/\n\npragma solidity ^0.8.0;\nimport \"@openzeppelin/contracts/token/ERC20/ERC20.sol\";\n\ncontract RealEstate is ERC20{\n\n    struct Property{\n\n        uint id;\n        address owner;\n        uint price;\n\n    }\n\n    // struct PropertyBalance{\n\n    //     uint id;\n    //     uint balance;\n    // }\n\n    event PropertyCreated(\n\n        uint id,\n        address owner,\n        uint price,\n        uint balance\n    );\n\n    \n    \n    mapping(address=>uint[]) prop_balance;\n    mapping(uint=>Property) prop_list;\n\n    constructor(uint properties)  ERC20(\"Property\",\"PPT\"){\n        uint[] memory temp=new uint[](properties); // 0 indexed\n\n        \n\n        for(uint i=0;i<properties;i++){\n\n            Property memory p = Property(i,msg.sender,(i+1));\n\n            prop_list[i]=p;\n\n            _mint(msg.sender,10**18);\n\n            temp[i]=10**18;\n\n            emit PropertyCreated(p.id,p.owner,p.price,balanceOf(msg.sender));\n\n        }\n    }\n\n    function buy(uint id) public payable{\n\n        Property storage p = prop_list[id];\n\n\n        require(msg.sender!=p.owner,'Already an owner');\n\n        require(msg.value==p.price,'Incorrect amount of funds');\n\n\n    }\n\n    function sell() public{}\n\n    function rent() public{}\n\n    function de_rent() public{}\n\n\n\n   \n}",
  "sourcePath": "/home/alabhinav/Documents/solidity/RealEstate/src/contracts/RealEstate.sol",
  "compiler": {
    "name": "solc",
    "version": "0.8.0+commit.c7dfd78e.Emscripten.clang"
  },
  "schemaVersion": "3.4.8",
  "updatedAt": "2022-07-14T19:32:24.998Z",
  "networkType": "ethereum",
  "devdoc": {
    "kind": "dev",
    "methods": {
      "allowance(address,address)": {
        "details": "See {IERC20-allowance}."
      },
      "approve(address,uint256)": {
        "details": "See {IERC20-approve}. NOTE: If `amount` is the maximum `uint256`, the allowance is not updated on `transferFrom`. This is semantically equivalent to an infinite approval. Requirements: - `spender` cannot be the zero address."
      },
      "balanceOf(address)": {
        "details": "See {IERC20-balanceOf}."
      },
      "decimals()": {
        "details": "Returns the number of decimals used to get its user representation. For example, if `decimals` equals `2`, a balance of `505` tokens should be displayed to a user as `5.05` (`505 / 10 ** 2`). Tokens usually opt for a value of 18, imitating the relationship between Ether and Wei. This is the value {ERC20} uses, unless this function is overridden; NOTE: This information is only used for _display_ purposes: it in no way affects any of the arithmetic of the contract, including {IERC20-balanceOf} and {IERC20-transfer}."
      },
      "decreaseAllowance(address,uint256)": {
        "details": "Atomically decreases the allowance granted to `spender` by the caller. This is an alternative to {approve} that can be used as a mitigation for problems described in {IERC20-approve}. Emits an {Approval} event indicating the updated allowance. Requirements: - `spender` cannot be the zero address. - `spender` must have allowance for the caller of at least `subtractedValue`."
      },
      "increaseAllowance(address,uint256)": {
        "details": "Atomically increases the allowance granted to `spender` by the caller. This is an alternative to {approve} that can be used as a mitigation for problems described in {IERC20-approve}. Emits an {Approval} event indicating the updated allowance. Requirements: - `spender` cannot be the zero address."
      },
      "name()": {
        "details": "Returns the name of the token."
      },
      "symbol()": {
        "details": "Returns the symbol of the token, usually a shorter version of the name."
      },
      "totalSupply()": {
        "details": "See {IERC20-totalSupply}."
      },
      "transfer(address,uint256)": {
        "details": "See {IERC20-transfer}. Requirements: - `to` cannot be the zero address. - the caller must have a balance of at least `amount`."
      },
      "transferFrom(address,address,uint256)": {
        "details": "See {IERC20-transferFrom}. Emits an {Approval} event indicating the updated allowance. This is not required by the EIP. See the note at the beginning of {ERC20}. NOTE: Does not update the allowance if the current allowance is the maximum `uint256`. Requirements: - `from` and `to` cannot be the zero address. - `from` must have a balance of at least `amount`. - the caller must have allowance for ``from``'s tokens of at least `amount`."
      }
    },
    "version": 1
  },
  "userdoc": {
    "kind": "user",
    "methods": {},
    "version": 1
  }
}